{"contracts/MyOApp.sol":{"MyOApp":{"abi":[{"inputs":[{"internalType":"address","name":"_endpoint","type":"address"},{"internalType":"address","name":"_owner","type":"address"}],"stateMutability":"nonpayable","type":"constructor"},{"inputs":[],"name":"InvalidDelegate","type":"error"},{"inputs":[],"name":"InvalidEndpointCall","type":"error"},{"inputs":[{"internalType":"bytes","name":"options","type":"bytes"}],"name":"InvalidOptions","type":"error"},{"inputs":[],"name":"LzTokenUnavailable","type":"error"},{"inputs":[{"internalType":"uint32","name":"eid","type":"uint32"}],"name":"NoPeer","type":"error"},{"inputs":[{"internalType":"uint256","name":"msgValue","type":"uint256"}],"name":"NotEnoughNative","type":"error"},{"inputs":[{"internalType":"address","name":"addr","type":"address"}],"name":"OnlyEndpoint","type":"error"},{"inputs":[{"internalType":"uint32","name":"eid","type":"uint32"},{"internalType":"bytes32","name":"sender","type":"bytes32"}],"name":"OnlyPeer","type":"error"},{"inputs":[{"internalType":"address","name":"owner","type":"address"}],"name":"OwnableInvalidOwner","type":"error"},{"inputs":[{"internalType":"address","name":"account","type":"address"}],"name":"OwnableUnauthorizedAccount","type":"error"},{"inputs":[{"internalType":"address","name":"token","type":"address"}],"name":"SafeERC20FailedOperation","type":"error"},{"anonymous":false,"inputs":[{"components":[{"internalType":"uint32","name":"eid","type":"uint32"},{"internalType":"uint16","name":"msgType","type":"uint16"},{"internalType":"bytes","name":"options","type":"bytes"}],"indexed":false,"internalType":"struct EnforcedOptionParam[]","name":"_enforcedOptions","type":"tuple[]"}],"name":"EnforcedOptionSet","type":"event"},{"anonymous":false,"inputs":[{"indexed":true,"internalType":"uint32","name":"srcEid","type":"uint32"},{"indexed":false,"internalType":"string","name":"message","type":"string"},{"indexed":false,"internalType":"uint256","name":"totalReceived","type":"uint256"}],"name":"MessageReceived","type":"event"},{"anonymous":false,"inputs":[{"indexed":true,"internalType":"uint32","name":"dstEid","type":"uint32"},{"indexed":false,"internalType":"string","name":"message","type":"string"},{"indexed":false,"internalType":"uint256","name":"messageId","type":"uint256"}],"name":"MessageSent","type":"event"},{"anonymous":false,"inputs":[{"indexed":true,"internalType":"address","name":"previousOwner","type":"address"},{"indexed":true,"internalType":"address","name":"newOwner","type":"address"}],"name":"OwnershipTransferred","type":"event"},{"anonymous":false,"inputs":[{"indexed":false,"internalType":"uint32","name":"eid","type":"uint32"},{"indexed":false,"internalType":"bytes32","name":"peer","type":"bytes32"}],"name":"PeerSet","type":"event"},{"inputs":[],"name":"SEND","outputs":[{"internalType":"uint16","name":"","type":"uint16"}],"stateMutability":"view","type":"function"},{"inputs":[{"components":[{"internalType":"uint32","name":"srcEid","type":"uint32"},{"internalType":"bytes32","name":"sender","type":"bytes32"},{"internalType":"uint64","name":"nonce","type":"uint64"}],"internalType":"struct Origin","name":"origin","type":"tuple"}],"name":"allowInitializePath","outputs":[{"internalType":"bool","name":"","type":"bool"}],"stateMutability":"view","type":"function"},{"inputs":[{"internalType":"uint32","name":"_eid","type":"uint32"},{"internalType":"uint16","name":"_msgType","type":"uint16"},{"internalType":"bytes","name":"_extraOptions","type":"bytes"}],"name":"combineOptions","outputs":[{"internalType":"bytes","name":"","type":"bytes"}],"stateMutability":"view","type":"function"},{"inputs":[],"name":"endpoint","outputs":[{"internalType":"contract ILayerZeroEndpointV2","name":"","type":"address"}],"stateMutability":"view","type":"function"},{"inputs":[{"internalType":"uint32","name":"eid","type":"uint32"},{"internalType":"uint16","name":"msgType","type":"uint16"}],"name":"enforcedOptions","outputs":[{"internalType":"bytes","name":"enforcedOption","type":"bytes"}],"stateMutability":"view","type":"function"},{"inputs":[{"internalType":"uint32","name":"_srcEid","type":"uint32"}],"name":"getMessagesFromChain","outputs":[{"internalType":"uint256","name":"","type":"uint256"}],"stateMutability":"view","type":"function"},{"inputs":[],"name":"getStats","outputs":[{"internalType":"uint256","name":"sent","type":"uint256"},{"internalType":"uint256","name":"received","type":"uint256"},{"internalType":"string","name":"lastMsg","type":"string"}],"stateMutability":"view","type":"function"},{"inputs":[{"components":[{"internalType":"uint32","name":"srcEid","type":"uint32"},{"internalType":"bytes32","name":"sender","type":"bytes32"},{"internalType":"uint64","name":"nonce","type":"uint64"}],"internalType":"struct Origin","name":"","type":"tuple"},{"internalType":"bytes","name":"","type":"bytes"},{"internalType":"address","name":"_sender","type":"address"}],"name":"isComposeMsgSender","outputs":[{"internalType":"bool","name":"","type":"bool"}],"stateMutability":"view","type":"function"},{"inputs":[],"name":"lastMessage","outputs":[{"internalType":"string","name":"","type":"string"}],"stateMutability":"view","type":"function"},{"inputs":[{"components":[{"internalType":"uint32","name":"srcEid","type":"uint32"},{"internalType":"bytes32","name":"sender","type":"bytes32"},{"internalType":"uint64","name":"nonce","type":"uint64"}],"internalType":"struct Origin","name":"_origin","type":"tuple"},{"internalType":"bytes32","name":"_guid","type":"bytes32"},{"internalType":"bytes","name":"_message","type":"bytes"},{"internalType":"address","name":"_executor","type":"address"},{"internalType":"bytes","name":"_extraData","type":"bytes"}],"name":"lzReceive","outputs":[],"stateMutability":"payable","type":"function"},{"inputs":[{"internalType":"uint32","name":"","type":"uint32"}],"name":"messagesFromChain","outputs":[{"internalType":"uint256","name":"","type":"uint256"}],"stateMutability":"view","type":"function"},{"inputs":[],"name":"messagesReceived","outputs":[{"internalType":"uint256","name":"","type":"uint256"}],"stateMutability":"view","type":"function"},{"inputs":[],"name":"messagesSent","outputs":[{"internalType":"uint256","name":"","type":"uint256"}],"stateMutability":"view","type":"function"},{"inputs":[{"internalType":"uint32","name":"","type":"uint32"},{"internalType":"bytes32","name":"","type":"bytes32"}],"name":"nextNonce","outputs":[{"internalType":"uint64","name":"nonce","type":"uint64"}],"stateMutability":"view","type":"function"},{"inputs":[],"name":"oAppVersion","outputs":[{"internalType":"uint64","name":"senderVersion","type":"uint64"},{"internalType":"uint64","name":"receiverVersion","type":"uint64"}],"stateMutability":"pure","type":"function"},{"inputs":[],"name":"owner","outputs":[{"internalType":"address","name":"","type":"address"}],"stateMutability":"view","type":"function"},{"inputs":[{"internalType":"uint32","name":"eid","type":"uint32"}],"name":"peers","outputs":[{"internalType":"bytes32","name":"peer","type":"bytes32"}],"stateMutability":"view","type":"function"},{"inputs":[{"internalType":"uint32","name":"_dstEid","type":"uint32"},{"internalType":"string","name":"_string","type":"string"},{"internalType":"bytes","name":"_options","type":"bytes"},{"internalType":"bool","name":"_payInLzToken","type":"bool"}],"name":"quoteSendString","outputs":[{"components":[{"internalType":"uint256","name":"nativeFee","type":"uint256"},{"internalType":"uint256","name":"lzTokenFee","type":"uint256"}],"internalType":"struct MessagingFee","name":"fee","type":"tuple"}],"stateMutability":"view","type":"function"},{"inputs":[],"name":"renounceOwnership","outputs":[],"stateMutability":"nonpayable","type":"function"},{"inputs":[{"internalType":"uint32","name":"_dstEid","type":"uint32"}],"name":"sendHello","outputs":[],"stateMutability":"payable","type":"function"},{"inputs":[{"internalType":"uint32","name":"_dstEid","type":"uint32"},{"internalType":"string","name":"_string","type":"string"},{"internalType":"bytes","name":"_options","type":"bytes"}],"name":"sendString","outputs":[],"stateMutability":"payable","type":"function"},{"inputs":[{"internalType":"address","name":"_delegate","type":"address"}],"name":"setDelegate","outputs":[],"stateMutability":"nonpayable","type":"function"},{"inputs":[{"components":[{"internalType":"uint32","name":"eid","type":"uint32"},{"internalType":"uint16","name":"msgType","type":"uint16"},{"internalType":"bytes","name":"options","type":"bytes"}],"internalType":"struct EnforcedOptionParam[]","name":"_enforcedOptions","type":"tuple[]"}],"name":"setEnforcedOptions","outputs":[],"stateMutability":"nonpayable","type":"function"},{"inputs":[{"internalType":"uint32","name":"_eid","type":"uint32"},{"internalType":"bytes32","name":"_peer","type":"bytes32"}],"name":"setPeer","outputs":[],"stateMutability":"nonpayable","type":"function"},{"inputs":[{"internalType":"address","name":"newOwner","type":"address"}],"name":"transferOwnership","outputs":[],"stateMutability":"nonpayable","type":"function"}],"devdoc":{"details":"Inherits from OApp for core cross-chain functionality","errors":{"OwnableInvalidOwner(address)":[{"details":"The owner is not a valid owner account. (eg. `address(0)`)"}],"OwnableUnauthorizedAccount(address)":[{"details":"The caller account is not authorized to perform an operation."}],"SafeERC20FailedOperation(address)":[{"details":"An operation with an ERC-20 token failed."}]},"kind":"dev","methods":{"allowInitializePath((uint32,bytes32,uint64))":{"details":"This indicates to the endpoint that the OApp has enabled msgs for this particular path to be received.This defaults to assuming if a peer has been set, its initialized. Can be overridden by the OApp if there is other logic to determine this.","params":{"origin":"The origin information containing the source endpoint and sender address."},"returns":{"_0":"Whether the path has been initialized."}},"combineOptions(uint32,uint16,bytes)":{"details":"If there is an enforced lzReceive option: - {gasLimit: 200k, msg.value: 1 ether} AND a caller supplies a lzReceive option: {gasLimit: 100k, msg.value: 0.5 ether} - The resulting options will be {gasLimit: 300k, msg.value: 1.5 ether} when the message is executed on the remote lzReceive() function.This presence of duplicated options is handled off-chain in the verifier/executor.","params":{"_eid":"The endpoint ID.","_extraOptions":"Additional options passed by the caller.","_msgType":"The OAPP message type."},"returns":{"_0":"options The combination of caller specified options AND enforced options."}},"constructor":{"params":{"_endpoint":"The local chain's LayerZero Endpoint V2 address","_owner":"The address permitted to configure this OApp"}},"getMessagesFromChain(uint32)":{"params":{"_srcEid":"Source chain endpoint ID"},"returns":{"_0":"Number of messages received from that chain"}},"getStats()":{"returns":{"lastMsg":"Last message received","received":"Total messages received","sent":"Total messages sent"}},"isComposeMsgSender((uint32,bytes32,uint64),bytes,address)":{"details":"_origin The origin information containing the source endpoint and sender address.  - srcEid: The source chain endpoint ID.  - sender: The sender address on the src chain.  - nonce: The nonce of the message._message The lzReceive payload.Applications can optionally choose to implement separate composeMsg senders that are NOT the bridging layer.The default sender IS the OAppReceiver implementer.","params":{"_sender":"The sender address."},"returns":{"_0":"isSender Is a valid sender."}},"lzReceive((uint32,bytes32,uint64),bytes32,bytes,address,bytes)":{"details":"Entry point for receiving messages or packets from the endpoint.Entry point for receiving msg/packet from the LayerZero endpoint.","params":{"_executor":"The address of the executor for the received message.","_extraData":"Additional arbitrary data provided by the corresponding executor.","_guid":"The unique identifier for the received LayerZero message.","_message":"The payload of the received message.","_origin":"The origin information containing the source endpoint and sender address.  - srcEid: The source chain endpoint ID.  - sender: The sender address on the src chain.  - nonce: The nonce of the message."}},"nextNonce(uint32,bytes32)":{"details":"_srcEid The source endpoint ID._sender The sender address.The path nonce starts from 1. If 0 is returned it means that there is NO nonce ordered enforcement.Is required by the off-chain executor to determine the OApp expects msg execution is ordered.This is also enforced by the OApp.By default this is NOT enabled. ie. nextNonce is hardcoded to return 0.","returns":{"nonce":"The next nonce."}},"oAppVersion()":{"returns":{"receiverVersion":"The version of the OAppReceiver.sol implementation.","senderVersion":"The version of the OAppSender.sol implementation."}},"owner()":{"details":"Returns the address of the current owner."},"quoteSendString(uint32,string,bytes,bool)":{"params":{"_dstEid":"Destination chain's endpoint ID.","_options":"Message execution options (e.g., for sending gas to destination).","_payInLzToken":"Whether to return fee in ZRO token.","_string":"The string to send."},"returns":{"fee":"A `MessagingFee` struct containing the calculated gas fee in either the native token or ZRO token."}},"renounceOwnership()":{"details":"Leaves the contract without owner. It will not be possible to call `onlyOwner` functions. Can only be called by the current owner. NOTE: Renouncing ownership will leave the contract without an owner, thereby disabling any functionality that is only available to the owner."},"sendHello(uint32)":{"params":{"_dstEid":"Destination chain endpoint ID"}},"sendString(uint32,string,bytes)":{"params":{"_dstEid":"Destination Endpoint ID (uint32)","_options":"Execution options for gas on the destination (bytes)","_string":"The string to send"}},"setDelegate(address)":{"details":"Only the owner/admin of the OApp can call this function.Provides the ability for a delegate to set configs, on behalf of the OApp, directly on the Endpoint contract.","params":{"_delegate":"The address of the delegate to be set."}},"setEnforcedOptions((uint32,uint16,bytes)[])":{"details":"Sets the enforced options for specific endpoint and message type combinations.Only the owner/admin of the OApp can call this function.Provides a way for the OApp to enforce things like paying for PreCrime, AND/OR minimum dst lzReceive gas amounts etc.These enforced options can vary as the potential options/execution on the remote may differ as per the msgType. eg. Amount of lzReceive() gas necessary to deliver a lzCompose() message adds overhead you dont want to pay if you are only making a standard LayerZero message ie. lzReceive() WITHOUT sendCompose().","params":{"_enforcedOptions":"An array of EnforcedOptionParam structures specifying enforced options."}},"setPeer(uint32,bytes32)":{"details":"Only the owner/admin of the OApp can call this function.Indicates that the peer is trusted to send LayerZero messages to this OApp.Set this to bytes32(0) to remove the peer address.Peer is a bytes32 to accommodate non-evm chains.","params":{"_eid":"The endpoint ID.","_peer":"The address of the peer to be associated with the corresponding endpoint."}},"transferOwnership(address)":{"details":"Transfers ownership of the contract to a new account (`newOwner`). Can only be called by the current owner."}},"title":"MyOApp - Custom LayerZero Cross-Chain Application","version":1},"evm":{"bytecode":{"linkReferences":{},"object":"60a06040523480156200001157600080fd5b506040516200221c3803806200221c83398101604081905262000034916200017c565b81818181806001600160a01b0381166200006857604051631e4fbdf760e01b81526000600482015260240160405180910390fd5b62000073816200010f565b506001600160a01b038083166080528116620000a257604051632d618d8160e21b815260040160405180910390fd5b60805160405163ca5eb5e160e01b81526001600160a01b0383811660048301529091169063ca5eb5e190602401600060405180830381600087803b158015620000ea57600080fd5b505af1158015620000ff573d6000803e3d6000fd5b50505050505050505050620001b4565b600080546001600160a01b038381166001600160a01b0319831681178455604051919092169283917f8be0079c531659141344cd1fd0a4f28419497f9722a3daafe3b4186f6b6457e09190a35050565b80516001600160a01b03811681146200017757600080fd5b919050565b600080604083850312156200019057600080fd5b6200019b836200015f565b9150620001ab602084016200015f565b90509250929050565b608051612022620001fa600039600081816102ad0152818161050601528181610a9801528181610d80015281816111270152818161121e01526112d501526120226000f3fe6080604052600436106101665760003560e01c80637d25a05e116100d1578063bb0b6a531161008a578063ca5eb5e111610064578063ca5eb5e114610469578063d3b4866e14610489578063f2fde38b146104c4578063ff7bd03d146104e457600080fd5b8063bb0b6a53146103f8578063bc70b35414610425578063c59d48471461044557600080fd5b80637d25a05e1461031257806382413eac1461034a5780638da5cb5b1461037a578063ade8124214610398578063aee18829146103c5578063b98bd070146103d857600080fd5b80633d448d27116101235780633d448d27146102245780635535d461146102655780635be63c71146102855780635e280f111461029b578063715018a6146102e7578063752009d9146102fc57600080fd5b806313137d651461016b57806317442b70146101805780631f5e1334146101a757806332970710146101cf5780633400288b146101f157806336ef962014610211575b600080fd5b61017e61017936600461147f565b610504565b005b34801561018c57600080fd5b50604080516001815260026020820152015b60405180910390f35b3480156101b357600080fd5b506101bc600181565b60405161ffff909116815260200161019e565b3480156101db57600080fd5b506101e46105c4565b60405161019e919061156e565b3480156101fd57600080fd5b5061017e61020c3660046115a1565b610652565b61017e61021f3660046115cb565b610668565b34801561023057600080fd5b5061025761023f36600461164b565b63ffffffff1660009081526006602052604090205490565b60405190815260200161019e565b34801561027157600080fd5b506101e4610280366004611678565b610721565b34801561029157600080fd5b5061025760055481565b3480156102a757600080fd5b506102cf7f000000000000000000000000000000000000000000000000000000000000000081565b6040516001600160a01b03909116815260200161019e565b3480156102f357600080fd5b5061017e610745565b34801561030857600080fd5b5061025760045481565b34801561031e57600080fd5b5061033261032d3660046115a1565b610759565b6040516001600160401b03909116815260200161019e565b34801561035657600080fd5b5061036a6103653660046116ab565b610762565b604051901515815260200161019e565b34801561038657600080fd5b506000546001600160a01b03166102cf565b3480156103a457600080fd5b506102576103b336600461164b565b60066020526000908152604090205481565b61017e6103d336600461164b565b610777565b3480156103e457600080fd5b5061017e6103f3366004611711565b61080b565b34801561040457600080fd5b5061025761041336600461164b565b60016020526000908152604090205481565b34801561043157600080fd5b506101e4610440366004611785565b610825565b34801561045157600080fd5b5061045a6109cd565b60405161019e939291906117e5565b34801561047557600080fd5b5061017e610484366004611804565b610a71565b34801561049557600080fd5b506104a96104a4366004611821565b610af7565b6040805182518152602092830151928101929092520161019e565b3480156104d057600080fd5b5061017e6104df366004611804565b610b55565b3480156104f057600080fd5b5061036a6104ff3660046118b8565b610b93565b7f00000000000000000000000000000000000000000000000000000000000000006001600160a01b03163314610554576040516391ac5e4f60e01b81523360048201526024015b60405180910390fd5b6020870180359061056e90610569908a61164b565b610bc9565b146105ac57610580602088018861164b565b60405163309afaf360e21b815263ffffffff90911660048201526020880135602482015260440161054b565b6105bb87878787878787610c05565b50505050505050565b600380546105d1906118d4565b80601f01602080910402602001604051908101604052809291908181526020018280546105fd906118d4565b801561064a5780601f1061061f5761010080835404028352916020019161064a565b820191906000526020600020905b81548152906001019060200180831161062d57829003601f168201915b505050505081565b61065a610ccb565b6106648282610cf8565b5050565b600480549060006106788361191e565b90915550506004546040516000906106969087908790602001611960565b60405160208183030381529060405290506106d587826106b98a60018989610825565b6040518060400160405280348152602001600081525033610d4d565b508663ffffffff167f9cda5eaa5fc52c2511df38a1c52fa5346d169b42263506dc06e34e770df2dc3a87878560405161071093929190611974565b60405180910390a250505050505050565b6002602090815260009283526040808420909152908252902080546105d1906118d4565b61074d610ccb565b6107576000610e58565b565b60005b92915050565b6001600160a01b03811630145b949350505050565b600061078246610ea8565b6040516020016107929190611998565b60408051601f198184030181526020830182526000835290516301b77cb160e51b815290925030906336ef96209034906107d4908790879087906004016119dc565b6000604051808303818588803b1580156107ed57600080fd5b505af1158015610801573d6000803e3d6000fd5b5050505050505050565b610813610ccb565b6106646108208284611adc565b610fd3565b63ffffffff8416600090815260026020908152604080832061ffff87168452909152812080546060929190610859906118d4565b80601f0160208091040260200160405190810160405280929190818152602001828054610885906118d4565b80156108d25780601f106108a7576101008083540402835291602001916108d2565b820191906000526020600020905b8154815290600101906020018083116108b557829003601f168201915b5050505050905080516000036109225783838080601f01602080910402602001604051908101604052809392919081815260200183838082843760009201919091525092945061076f9350505050565b600083900361093257905061076f565b600283106109b05761097984848080601f0160208091040260200160405190810160405280939291908181526020018383808284376000920191909152506110e592505050565b806109878460028188611bc4565b60405160200161099993929190611bee565b60405160208183030381529060405291505061076f565b8383604051639a6d49cd60e01b815260040161054b929190611960565b600080606060045460055460038080546109e6906118d4565b80601f0160208091040260200160405190810160405280929190818152602001828054610a12906118d4565b8015610a5f5780601f10610a3457610100808354040283529160200191610a5f565b820191906000526020600020905b815481529060010190602001808311610a4257829003601f168201915b50505050509050925092509250909192565b610a79610ccb565b60405163ca5eb5e160e01b81526001600160a01b0382811660048301527f0000000000000000000000000000000000000000000000000000000000000000169063ca5eb5e190602401600060405180830381600087803b158015610adc57600080fd5b505af1158015610af0573d6000803e3d6000fd5b5050505050565b604080518082019091526000808252602082015260008686604051602001610b20929190611960565b6040516020818303038152906040529050610b498882610b438b60018a8a610825565b86611111565b98975050505050505050565b610b5d610ccb565b6001600160a01b038116610b8757604051631e4fbdf760e01b81526000600482015260240161054b565b610b9081610e58565b50565b6000602082018035906001908390610bab908661164b565b63ffffffff1681526020810191909152604001600020541492915050565b63ffffffff81166000908152600160205260408120548061075c5760405163f6ff4fb760e01b815263ffffffff8416600482015260240161054b565b6000610c1385870187611c16565b90506003610c218282611caf565b5060058054906000610c328361191e565b90915550600690506000610c4960208b018b61164b565b63ffffffff16815260208101919091526040016000908120805491610c6d8361191e565b90915550610c809050602089018961164b565b63ffffffff167f451f60fd933734ca5a268884123eb0d3f0c8b81395f69440755531998a80763d82600554604051610cb9929190611d6e565b60405180910390a25050505050505050565b6000546001600160a01b031633146107575760405163118cdaa760e01b815233600482015260240161054b565b63ffffffff8216600081815260016020908152604091829020849055815192835282018390527f238399d427b947898edb290f5ff0f9109849b1c3ba196a42e35f00c50a54b98b910160405180910390a15050565b610d556113c3565b6000610d6484600001516111f2565b602085015190915015610d7e57610d7e846020015161121a565b7f00000000000000000000000000000000000000000000000000000000000000006001600160a01b0316632637a450826040518060a001604052808b63ffffffff168152602001610dce8c610bc9565b81526020018a815260200189815260200160008960200151111515815250866040518463ffffffff1660e01b8152600401610e0a929190611d90565b60806040518083038185885af1158015610e28573d6000803e3d6000fd5b50505050506040513d601f19601f82011682018060405250810190610e4d9190611e57565b979650505050505050565b600080546001600160a01b038381166001600160a01b0319831681178455604051919092169283917f8be0079c531659141344cd1fd0a4f28419497f9722a3daafe3b4186f6b6457e09190a35050565b606081600003610ecf5750506040805180820190915260018152600360fc1b602082015290565b8160005b8115610ef95780610ee38161191e565b9150610ef29050600a83611ead565b9150610ed3565b6000816001600160401b03811115610f1357610f13611a17565b6040519080825280601f01601f191660200182016040528015610f3d576020820181803683370190505b509050815b8515610fca57610f53600182611ecf565b90506000610f62600a88611ead565b610f6d90600a611ee2565b610f779088611ecf565b610f82906030611ef9565b905060008160f81b905080848481518110610f9f57610f9f611f12565b60200101906001600160f81b031916908160001a905350610fc1600a89611ead565b97505050610f42565b50949350505050565b60005b81518110156110aa57611005828281518110610ff457610ff4611f12565b6020026020010151604001516110e5565b81818151811061101757611017611f12565b6020026020010151604001516002600084848151811061103957611039611f12565b60200260200101516000015163ffffffff1663ffffffff168152602001908152602001600020600084848151811061107357611073611f12565b60200260200101516020015161ffff1661ffff16815260200190815260200160002090816110a19190611caf565b50600101610fd6565b507fbe4864a8e820971c0247f5992e2da559595f7bf076a21cb5928d443d2a13b674816040516110da9190611f28565b60405180910390a150565b600281015161ffff81166003146106645781604051639a6d49cd60e01b815260040161054b919061156e565b60408051808201909152600080825260208201527f00000000000000000000000000000000000000000000000000000000000000006001600160a01b031663ddc28c586040518060a001604052808863ffffffff16815260200161117489610bc9565b8152602001878152602001868152602001851515815250306040518363ffffffff1660e01b81526004016111a9929190611d90565b6040805180830381865afa1580156111c5573d6000803e3d6000fd5b505050506040513d601f19601f820116820180604052508101906111e99190611fb3565b95945050505050565b6000813414611216576040516304fb820960e51b815234600482015260240161054b565b5090565b60007f00000000000000000000000000000000000000000000000000000000000000006001600160a01b031663e4fe1d946040518163ffffffff1660e01b8152600401602060405180830381865afa15801561127a573d6000803e3d6000fd5b505050506040513d601f19601f8201168201806040525081019061129e9190611fcf565b90506001600160a01b0381166112c7576040516329b99a9560e11b815260040160405180910390fd5b6040805133602482018190527f00000000000000000000000000000000000000000000000000000000000000006001600160a01b03818116604485015260648085018890528551808603909101815260849094019094526020830180516001600160e01b03166323b872dd60e01b17905261066493851692869061134c908590611352565b50505050565b600080602060008451602086016000885af180611375576040513d6000823e3d81fd5b50506000513d9150811561138d57806001141561139a565b6001600160a01b0384163b155b1561134c57604051635274afe760e01b81526001600160a01b038516600482015260240161054b565b60405180606001604052806000801916815260200160006001600160401b03168152602001611405604051806040016040528060008152602001600081525090565b905290565b60006060828403121561141c57600080fd5b50919050565b60008083601f84011261143457600080fd5b5081356001600160401b0381111561144b57600080fd5b60208301915083602082850101111561146357600080fd5b9250929050565b6001600160a01b0381168114610b9057600080fd5b600080600080600080600060e0888a03121561149a57600080fd5b6114a4898961140a565b96506060880135955060808801356001600160401b03808211156114c757600080fd5b6114d38b838c01611422565b909750955060a08a013591506114e88261146a565b90935060c089013590808211156114fe57600080fd5b5061150b8a828b01611422565b989b979a50959850939692959293505050565b60005b83811015611539578181015183820152602001611521565b50506000910152565b6000815180845261155a81602086016020860161151e565b601f01601f19169290920160200192915050565b6020815260006115816020830184611542565b9392505050565b803563ffffffff8116811461159c57600080fd5b919050565b600080604083850312156115b457600080fd5b6115bd83611588565b946020939093013593505050565b6000806000806000606086880312156115e357600080fd5b6115ec86611588565b945060208601356001600160401b038082111561160857600080fd5b61161489838a01611422565b9096509450604088013591508082111561162d57600080fd5b5061163a88828901611422565b969995985093965092949392505050565b60006020828403121561165d57600080fd5b61158182611588565b803561ffff8116811461159c57600080fd5b6000806040838503121561168b57600080fd5b61169483611588565b91506116a260208401611666565b90509250929050565b60008060008060a085870312156116c157600080fd5b6116cb868661140a565b935060608501356001600160401b038111156116e657600080fd5b6116f287828801611422565b90945092505060808501356117068161146a565b939692955090935050565b6000806020838503121561172457600080fd5b82356001600160401b038082111561173b57600080fd5b818501915085601f83011261174f57600080fd5b81358181111561175e57600080fd5b8660208260051b850101111561177357600080fd5b60209290920196919550909350505050565b6000806000806060858703121561179b57600080fd5b6117a485611588565b93506117b260208601611666565b925060408501356001600160401b038111156117cd57600080fd5b6117d987828801611422565b95989497509550505050565b8381528260208201526060604082015260006111e96060830184611542565b60006020828403121561181657600080fd5b81356115818161146a565b6000806000806000806080878903121561183a57600080fd5b61184387611588565b955060208701356001600160401b038082111561185f57600080fd5b61186b8a838b01611422565b9097509550604089013591508082111561188457600080fd5b5061189189828a01611422565b909450925050606087013580151581146118aa57600080fd5b809150509295509295509295565b6000606082840312156118ca57600080fd5b611581838361140a565b600181811c908216806118e857607f821691505b60208210810361141c57634e487b7160e01b600052602260045260246000fd5b634e487b7160e01b600052601160045260246000fd5b60006001820161193057611930611908565b5060010190565b81835281816020850137506000828201602090810191909152601f909101601f19169091010190565b60208152600061076f602083018486611937565b604081526000611988604083018587611937565b9050826020830152949350505050565b7002432b6363790333937b69031b430b4b71607d1b8152600082516119c481601185016020870161151e565b602160f81b6011939091019283015250601201919050565b63ffffffff841681526060602082015260006119fb6060830185611542565b8281036040840152611a0d8185611542565b9695505050505050565b634e487b7160e01b600052604160045260246000fd5b604051606081016001600160401b0381118282101715611a4f57611a4f611a17565b60405290565b604051601f8201601f191681016001600160401b0381118282101715611a7d57611a7d611a17565b604052919050565b60006001600160401b03831115611a9e57611a9e611a17565b611ab1601f8401601f1916602001611a55565b9050828152838383011115611ac557600080fd5b828260208301376000602084830101529392505050565b60006001600160401b0380841115611af657611af6611a17565b8360051b6020611b07818301611a55565b868152918501918181019036841115611b1f57600080fd5b865b84811015611bb857803586811115611b395760008081fd5b88016060368290031215611b4d5760008081fd5b611b55611a2d565b611b5e82611588565b8152611b6b868301611666565b8682015260408083013589811115611b835760008081fd5b929092019136601f840112611b985760008081fd5b611ba6368435898601611a85565b90820152845250918301918301611b21565b50979650505050505050565b60008085851115611bd457600080fd5b83861115611be157600080fd5b5050820193919092039150565b60008451611c0081846020890161151e565b8201838582376000930192835250909392505050565b600060208284031215611c2857600080fd5b81356001600160401b03811115611c3e57600080fd5b8201601f81018413611c4f57600080fd5b61076f84823560208401611a85565b601f821115611caa576000816000526020600020601f850160051c81016020861015611c875750805b601f850160051c820191505b81811015611ca657828155600101611c93565b5050505b505050565b81516001600160401b03811115611cc857611cc8611a17565b611cdc81611cd684546118d4565b84611c5e565b602080601f831160018114611d115760008415611cf95750858301515b600019600386901b1c1916600185901b178555611ca6565b600085815260208120601f198616915b82811015611d4057888601518255948401946001909101908401611d21565b5085821015611d5e5787850151600019600388901b60f8161c191681555b5050505050600190811b01905550565b604081526000611d816040830185611542565b90508260208301529392505050565b6040815263ffffffff8351166040820152602083015160608201526000604084015160a06080840152611dc660e0840182611542565b90506060850151603f198483030160a0850152611de38282611542565b60809690960151151560c08501525050506001600160a01b039190911660209091015290565b600060408284031215611e1b57600080fd5b604051604081018181106001600160401b0382111715611e3d57611e3d611a17565b604052825181526020928301519281019290925250919050565b600060808284031215611e6957600080fd5b611e71611a2d565b8251815260208301516001600160401b0381168114611e8f57600080fd5b6020820152611ea18460408501611e09565b60408201529392505050565b600082611eca57634e487b7160e01b600052601260045260246000fd5b500490565b8181038181111561075c5761075c611908565b808202811582820484141761075c5761075c611908565b60ff818116838216019081111561075c5761075c611908565b634e487b7160e01b600052603260045260246000fd5b600060208083018184528085518083526040925060408601915060408160051b87010184880160005b83811015611fa557888303603f190185528151805163ffffffff1684528781015161ffff16888501528601516060878501819052611f9181860183611542565b968901969450505090860190600101611f51565b509098975050505050505050565b600060408284031215611fc557600080fd5b6115818383611e09565b600060208284031215611fe157600080fd5b81516115818161146a56fea2646970667358221220eb4a679b3b1922a823630a0db1078edc5751b7fff43cc65b7f4254e40e62894a64736f6c63430008160033","opcodes":"PUSH1 0xA0 PUSH1 0x40 MSTORE CALLVALUE DUP1 ISZERO PUSH3 0x11 JUMPI PUSH1 0x0 DUP1 REVERT JUMPDEST POP PUSH1 0x40 MLOAD PUSH3 0x221C CODESIZE SUB DUP1 PUSH3 0x221C DUP4 CODECOPY DUP2 ADD PUSH1 0x40 DUP2 SWAP1 MSTORE PUSH3 0x34 SWAP2 PUSH3 0x17C JUMP JUMPDEST DUP2 DUP2 DUP2 DUP2 DUP1 PUSH1 0x1 PUSH1 0x1 PUSH1 0xA0 SHL SUB DUP2 AND PUSH3 0x68 JUMPI PUSH1 0x40 MLOAD PUSH4 0x1E4FBDF7 PUSH1 0xE0 SHL DUP2 MSTORE PUSH1 0x0 PUSH1 0x4 DUP3 ADD MSTORE PUSH1 0x24 ADD PUSH1 0x40 MLOAD DUP1 SWAP2 SUB SWAP1 REVERT JUMPDEST PUSH3 0x73 DUP2 PUSH3 0x10F JUMP JUMPDEST POP PUSH1 0x1 PUSH1 0x1 PUSH1 0xA0 SHL SUB DUP1 DUP4 AND PUSH1 0x80 MSTORE DUP2 AND PUSH3 0xA2 JUMPI PUSH1 0x40 MLOAD PUSH4 0x2D618D81 PUSH1 0xE2 SHL DUP2 MSTORE PUSH1 0x4 ADD PUSH1 0x40 MLOAD DUP1 SWAP2 SUB SWAP1 REVERT JUMPDEST PUSH1 0x80 MLOAD PUSH1 0x40 MLOAD PUSH4 0xCA5EB5E1 PUSH1 0xE0 SHL DUP2 MSTORE PUSH1 0x1 PUSH1 0x1 PUSH1 0xA0 SHL SUB DUP4 DUP2 AND PUSH1 0x4 DUP4 ADD MSTORE SWAP1 SWAP2 AND SWAP1 PUSH4 0xCA5EB5E1 SWAP1 PUSH1 0x24 ADD PUSH1 0x0 PUSH1 0x40 MLOAD DUP1 DUP4 SUB DUP2 PUSH1 0x0 DUP8 DUP1 EXTCODESIZE ISZERO DUP1 ISZERO PUSH3 0xEA JUMPI PUSH1 0x0 DUP1 REVERT JUMPDEST POP GAS CALL ISZERO DUP1 ISZERO PUSH3 0xFF JUMPI RETURNDATASIZE PUSH1 0x0 DUP1 RETURNDATACOPY RETURNDATASIZE PUSH1 0x0 REVERT JUMPDEST POP POP POP POP POP POP POP POP POP POP PUSH3 0x1B4 JUMP JUMPDEST PUSH1 0x0 DUP1 SLOAD PUSH1 0x1 PUSH1 0x1 PUSH1 0xA0 SHL SUB DUP4 DUP2 AND PUSH1 0x1 PUSH1 0x1 PUSH1 0xA0 SHL SUB NOT DUP4 AND DUP2 OR DUP5 SSTORE PUSH1 0x40 MLOAD SWAP2 SWAP1 SWAP3 AND SWAP3 DUP4 SWAP2 PUSH32 0x8BE0079C531659141344CD1FD0A4F28419497F9722A3DAAFE3B4186F6B6457E0 SWAP2 SWAP1 LOG3 POP POP JUMP JUMPDEST DUP1 MLOAD PUSH1 0x1 PUSH1 0x1 PUSH1 0xA0 SHL SUB DUP2 AND DUP2 EQ PUSH3 0x177 JUMPI PUSH1 0x0 DUP1 REVERT JUMPDEST SWAP2 SWAP1 POP JUMP JUMPDEST PUSH1 0x0 DUP1 PUSH1 0x40 DUP4 DUP6 SUB SLT ISZERO PUSH3 0x190 JUMPI PUSH1 0x0 DUP1 REVERT JUMPDEST PUSH3 0x19B DUP4 PUSH3 0x15F JUMP JUMPDEST SWAP2 POP PUSH3 0x1AB PUSH1 0x20 DUP5 ADD PUSH3 0x15F JUMP JUMPDEST SWAP1 POP SWAP3 POP SWAP3 SWAP1 POP JUMP JUMPDEST PUSH1 0x80 MLOAD PUSH2 0x2022 PUSH3 0x1FA PUSH1 0x0 CODECOPY PUSH1 0x0 DUP2 DUP2 PUSH2 0x2AD ADD MSTORE DUP2 DUP2 PUSH2 0x506 ADD MSTORE DUP2 DUP2 PUSH2 0xA98 ADD MSTORE DUP2 DUP2 PUSH2 0xD80 ADD MSTORE DUP2 DUP2 PUSH2 0x1127 ADD MSTORE DUP2 DUP2 PUSH2 0x121E ADD MSTORE PUSH2 0x12D5 ADD MSTORE PUSH2 0x2022 PUSH1 0x0 RETURN INVALID PUSH1 0x80 PUSH1 0x40 MSTORE PUSH1 0x4 CALLDATASIZE LT PUSH2 0x166 JUMPI PUSH1 0x0 CALLDATALOAD PUSH1 0xE0 SHR DUP1 PUSH4 0x7D25A05E GT PUSH2 0xD1 JUMPI DUP1 PUSH4 0xBB0B6A53 GT PUSH2 0x8A JUMPI DUP1 PUSH4 0xCA5EB5E1 GT PUSH2 0x64 JUMPI DUP1 PUSH4 0xCA5EB5E1 EQ PUSH2 0x469 JUMPI DUP1 PUSH4 0xD3B4866E EQ PUSH2 0x489 JUMPI DUP1 PUSH4 0xF2FDE38B EQ PUSH2 0x4C4 JUMPI DUP1 PUSH4 0xFF7BD03D EQ PUSH2 0x4E4 JUMPI PUSH1 0x0 DUP1 REVERT JUMPDEST DUP1 PUSH4 0xBB0B6A53 EQ PUSH2 0x3F8 JUMPI DUP1 PUSH4 0xBC70B354 EQ PUSH2 0x425 JUMPI DUP1 PUSH4 0xC59D4847 EQ PUSH2 0x445 JUMPI PUSH1 0x0 DUP1 REVERT JUMPDEST DUP1 PUSH4 0x7D25A05E EQ PUSH2 0x312 JUMPI DUP1 PUSH4 0x82413EAC EQ PUSH2 0x34A JUMPI DUP1 PUSH4 0x8DA5CB5B EQ PUSH2 0x37A JUMPI DUP1 PUSH4 0xADE81242 EQ PUSH2 0x398 JUMPI DUP1 PUSH4 0xAEE18829 EQ PUSH2 0x3C5 JUMPI DUP1 PUSH4 0xB98BD070 EQ PUSH2 0x3D8 JUMPI PUSH1 0x0 DUP1 REVERT JUMPDEST DUP1 PUSH4 0x3D448D27 GT PUSH2 0x123 JUMPI DUP1 PUSH4 0x3D448D27 EQ PUSH2 0x224 JUMPI DUP1 PUSH4 0x5535D461 EQ PUSH2 0x265 JUMPI DUP1 PUSH4 0x5BE63C71 EQ PUSH2 0x285 JUMPI DUP1 PUSH4 0x5E280F11 EQ PUSH2 0x29B JUMPI DUP1 PUSH4 0x715018A6 EQ PUSH2 0x2E7 JUMPI DUP1 PUSH4 0x752009D9 EQ PUSH2 0x2FC JUMPI PUSH1 0x0 DUP1 REVERT JUMPDEST DUP1 PUSH4 0x13137D65 EQ PUSH2 0x16B JUMPI DUP1 PUSH4 0x17442B70 EQ PUSH2 0x180 JUMPI DUP1 PUSH4 0x1F5E1334 EQ PUSH2 0x1A7 JUMPI DUP1 PUSH4 0x32970710 EQ PUSH2 0x1CF JUMPI DUP1 PUSH4 0x3400288B EQ PUSH2 0x1F1 JUMPI DUP1 PUSH4 0x36EF9620 EQ PUSH2 0x211 JUMPI JUMPDEST PUSH1 0x0 DUP1 REVERT JUMPDEST PUSH2 0x17E PUSH2 0x179 CALLDATASIZE PUSH1 0x4 PUSH2 0x147F JUMP JUMPDEST PUSH2 0x504 JUMP JUMPDEST STOP JUMPDEST CALLVALUE DUP1 ISZERO PUSH2 0x18C JUMPI PUSH1 0x0 DUP1 REVERT JUMPDEST POP PUSH1 0x40 DUP1 MLOAD PUSH1 0x1 DUP2 MSTORE PUSH1 0x2 PUSH1 0x20 DUP3 ADD MSTORE ADD JUMPDEST PUSH1 0x40 MLOAD DUP1 SWAP2 SUB SWAP1 RETURN JUMPDEST CALLVALUE DUP1 ISZERO PUSH2 0x1B3 JUMPI PUSH1 0x0 DUP1 REVERT JUMPDEST POP PUSH2 0x1BC PUSH1 0x1 DUP2 JUMP JUMPDEST PUSH1 0x40 MLOAD PUSH2 0xFFFF SWAP1 SWAP2 AND DUP2 MSTORE PUSH1 0x20 ADD PUSH2 0x19E JUMP JUMPDEST CALLVALUE DUP1 ISZERO PUSH2 0x1DB JUMPI PUSH1 0x0 DUP1 REVERT JUMPDEST POP PUSH2 0x1E4 PUSH2 0x5C4 JUMP JUMPDEST PUSH1 0x40 MLOAD PUSH2 0x19E SWAP2 SWAP1 PUSH2 0x156E JUMP JUMPDEST CALLVALUE DUP1 ISZERO PUSH2 0x1FD JUMPI PUSH1 0x0 DUP1 REVERT JUMPDEST POP PUSH2 0x17E PUSH2 0x20C CALLDATASIZE PUSH1 0x4 PUSH2 0x15A1 JUMP JUMPDEST PUSH2 0x652 JUMP JUMPDEST PUSH2 0x17E PUSH2 0x21F CALLDATASIZE PUSH1 0x4 PUSH2 0x15CB JUMP JUMPDEST PUSH2 0x668 JUMP JUMPDEST CALLVALUE DUP1 ISZERO PUSH2 0x230 JUMPI PUSH1 0x0 DUP1 REVERT JUMPDEST POP PUSH2 0x257 PUSH2 0x23F CALLDATASIZE PUSH1 0x4 PUSH2 0x164B JUMP JUMPDEST PUSH4 0xFFFFFFFF AND PUSH1 0x0 SWAP1 DUP2 MSTORE PUSH1 0x6 PUSH1 0x20 MSTORE PUSH1 0x40 SWAP1 KECCAK256 SLOAD SWAP1 JUMP JUMPDEST PUSH1 0x40 MLOAD SWAP1 DUP2 MSTORE PUSH1 0x20 ADD PUSH2 0x19E JUMP JUMPDEST CALLVALUE DUP1 ISZERO PUSH2 0x271 JUMPI PUSH1 0x0 DUP1 REVERT JUMPDEST POP PUSH2 0x1E4 PUSH2 0x280 CALLDATASIZE PUSH1 0x4 PUSH2 0x1678 JUMP JUMPDEST PUSH2 0x721 JUMP JUMPDEST CALLVALUE DUP1 ISZERO PUSH2 0x291 JUMPI PUSH1 0x0 DUP1 REVERT JUMPDEST POP PUSH2 0x257 PUSH1 0x5 SLOAD DUP2 JUMP JUMPDEST CALLVALUE DUP1 ISZERO PUSH2 0x2A7 JUMPI PUSH1 0x0 DUP1 REVERT JUMPDEST POP PUSH2 0x2CF PUSH32 0x0 DUP2 JUMP JUMPDEST PUSH1 0x40 MLOAD PUSH1 0x1 PUSH1 0x1 PUSH1 0xA0 SHL SUB SWAP1 SWAP2 AND DUP2 MSTORE PUSH1 0x20 ADD PUSH2 0x19E JUMP JUMPDEST CALLVALUE DUP1 ISZERO PUSH2 0x2F3 JUMPI PUSH1 0x0 DUP1 REVERT JUMPDEST POP PUSH2 0x17E PUSH2 0x745 JUMP JUMPDEST CALLVALUE DUP1 ISZERO PUSH2 0x308 JUMPI PUSH1 0x0 DUP1 REVERT JUMPDEST POP PUSH2 0x257 PUSH1 0x4 SLOAD DUP2 JUMP JUMPDEST CALLVALUE DUP1 ISZERO PUSH2 0x31E JUMPI PUSH1 0x0 DUP1 REVERT JUMPDEST POP PUSH2 0x332 PUSH2 0x32D CALLDATASIZE PUSH1 0x4 PUSH2 0x15A1 JUMP JUMPDEST PUSH2 0x759 JUMP JUMPDEST PUSH1 0x40 MLOAD PUSH1 0x1 PUSH1 0x1 PUSH1 0x40 SHL SUB SWAP1 SWAP2 AND DUP2 MSTORE PUSH1 0x20 ADD PUSH2 0x19E JUMP JUMPDEST CALLVALUE DUP1 ISZERO PUSH2 0x356 JUMPI PUSH1 0x0 DUP1 REVERT JUMPDEST POP PUSH2 0x36A PUSH2 0x365 CALLDATASIZE PUSH1 0x4 PUSH2 0x16AB JUMP JUMPDEST PUSH2 0x762 JUMP JUMPDEST PUSH1 0x40 MLOAD SWAP1 ISZERO ISZERO DUP2 MSTORE PUSH1 0x20 ADD PUSH2 0x19E JUMP JUMPDEST CALLVALUE DUP1 ISZERO PUSH2 0x386 JUMPI PUSH1 0x0 DUP1 REVERT JUMPDEST POP PUSH1 0x0 SLOAD PUSH1 0x1 PUSH1 0x1 PUSH1 0xA0 SHL SUB AND PUSH2 0x2CF JUMP JUMPDEST CALLVALUE DUP1 ISZERO PUSH2 0x3A4 JUMPI PUSH1 0x0 DUP1 REVERT JUMPDEST POP PUSH2 0x257 PUSH2 0x3B3 CALLDATASIZE PUSH1 0x4 PUSH2 0x164B JUMP JUMPDEST PUSH1 0x6 PUSH1 0x20 MSTORE PUSH1 0x0 SWAP1 DUP2 MSTORE PUSH1 0x40 SWAP1 KECCAK256 SLOAD DUP2 JUMP JUMPDEST PUSH2 0x17E PUSH2 0x3D3 CALLDATASIZE PUSH1 0x4 PUSH2 0x164B JUMP JUMPDEST PUSH2 0x777 JUMP JUMPDEST CALLVALUE DUP1 ISZERO PUSH2 0x3E4 JUMPI PUSH1 0x0 DUP1 REVERT JUMPDEST POP PUSH2 0x17E PUSH2 0x3F3 CALLDATASIZE PUSH1 0x4 PUSH2 0x1711 JUMP JUMPDEST PUSH2 0x80B JUMP JUMPDEST CALLVALUE DUP1 ISZERO PUSH2 0x404 JUMPI PUSH1 0x0 DUP1 REVERT JUMPDEST POP PUSH2 0x257 PUSH2 0x413 CALLDATASIZE PUSH1 0x4 PUSH2 0x164B JUMP JUMPDEST PUSH1 0x1 PUSH1 0x20 MSTORE PUSH1 0x0 SWAP1 DUP2 MSTORE PUSH1 0x40 SWAP1 KECCAK256 SLOAD DUP2 JUMP JUMPDEST CALLVALUE DUP1 ISZERO PUSH2 0x431 JUMPI PUSH1 0x0 DUP1 REVERT JUMPDEST POP PUSH2 0x1E4 PUSH2 0x440 CALLDATASIZE PUSH1 0x4 PUSH2 0x1785 JUMP JUMPDEST PUSH2 0x825 JUMP JUMPDEST CALLVALUE DUP1 ISZERO PUSH2 0x451 JUMPI PUSH1 0x0 DUP1 REVERT JUMPDEST POP PUSH2 0x45A PUSH2 0x9CD JUMP JUMPDEST PUSH1 0x40 MLOAD PUSH2 0x19E SWAP4 SWAP3 SWAP2 SWAP1 PUSH2 0x17E5 JUMP JUMPDEST CALLVALUE DUP1 ISZERO PUSH2 0x475 JUMPI PUSH1 0x0 DUP1 REVERT JUMPDEST POP PUSH2 0x17E PUSH2 0x484 CALLDATASIZE PUSH1 0x4 PUSH2 0x1804 JUMP JUMPDEST PUSH2 0xA71 JUMP JUMPDEST CALLVALUE DUP1 ISZERO PUSH2 0x495 JUMPI PUSH1 0x0 DUP1 REVERT JUMPDEST POP PUSH2 0x4A9 PUSH2 0x4A4 CALLDATASIZE PUSH1 0x4 PUSH2 0x1821 JUMP JUMPDEST PUSH2 0xAF7 JUMP JUMPDEST PUSH1 0x40 DUP1 MLOAD DUP3 MLOAD DUP2 MSTORE PUSH1 0x20 SWAP3 DUP4 ADD MLOAD SWAP3 DUP2 ADD SWAP3 SWAP1 SWAP3 MSTORE ADD PUSH2 0x19E JUMP JUMPDEST CALLVALUE DUP1 ISZERO PUSH2 0x4D0 JUMPI PUSH1 0x0 DUP1 REVERT JUMPDEST POP PUSH2 0x17E PUSH2 0x4DF CALLDATASIZE PUSH1 0x4 PUSH2 0x1804 JUMP JUMPDEST PUSH2 0xB55 JUMP JUMPDEST CALLVALUE DUP1 ISZERO PUSH2 0x4F0 JUMPI PUSH1 0x0 DUP1 REVERT JUMPDEST POP PUSH2 0x36A PUSH2 0x4FF CALLDATASIZE PUSH1 0x4 PUSH2 0x18B8 JUMP JUMPDEST PUSH2 0xB93 JUMP JUMPDEST PUSH32 0x0 PUSH1 0x1 PUSH1 0x1 PUSH1 0xA0 SHL SUB AND CALLER EQ PUSH2 0x554 JUMPI PUSH1 0x40 MLOAD PUSH4 0x91AC5E4F PUSH1 0xE0 SHL DUP2 MSTORE CALLER PUSH1 0x4 DUP3 ADD MSTORE PUSH1 0x24 ADD JUMPDEST PUSH1 0x40 MLOAD DUP1 SWAP2 SUB SWAP1 REVERT JUMPDEST PUSH1 0x20 DUP8 ADD DUP1 CALLDATALOAD SWAP1 PUSH2 0x56E SWAP1 PUSH2 0x569 SWAP1 DUP11 PUSH2 0x164B JUMP JUMPDEST PUSH2 0xBC9 JUMP JUMPDEST EQ PUSH2 0x5AC JUMPI PUSH2 0x580 PUSH1 0x20 DUP9 ADD DUP9 PUSH2 0x164B JUMP JUMPDEST PUSH1 0x40 MLOAD PUSH4 0x309AFAF3 PUSH1 0xE2 SHL DUP2 MSTORE PUSH4 0xFFFFFFFF SWAP1 SWAP2 AND PUSH1 0x4 DUP3 ADD MSTORE PUSH1 0x20 DUP9 ADD CALLDATALOAD PUSH1 0x24 DUP3 ADD MSTORE PUSH1 0x44 ADD PUSH2 0x54B JUMP JUMPDEST PUSH2 0x5BB DUP8 DUP8 DUP8 DUP8 DUP8 DUP8 DUP8 PUSH2 0xC05 JUMP JUMPDEST POP POP POP POP POP POP POP JUMP JUMPDEST PUSH1 0x3 DUP1 SLOAD PUSH2 0x5D1 SWAP1 PUSH2 0x18D4 JUMP JUMPDEST DUP1 PUSH1 0x1F ADD PUSH1 0x20 DUP1 SWAP2 DIV MUL PUSH1 0x20 ADD PUSH1 0x40 MLOAD SWAP1 DUP2 ADD PUSH1 0x40 MSTORE DUP1 SWAP3 SWAP2 SWAP1 DUP2 DUP2 MSTORE PUSH1 0x20 ADD DUP3 DUP1 SLOAD PUSH2 0x5FD SWAP1 PUSH2 0x18D4 JUMP JUMPDEST DUP1 ISZERO PUSH2 0x64A JUMPI DUP1 PUSH1 0x1F LT PUSH2 0x61F JUMPI PUSH2 0x100 DUP1 DUP4 SLOAD DIV MUL DUP4 MSTORE SWAP2 PUSH1 0x20 ADD SWAP2 PUSH2 0x64A JUMP JUMPDEST DUP3 ADD SWAP2 SWAP1 PUSH1 0x0 MSTORE PUSH1 0x20 PUSH1 0x0 KECCAK256 SWAP1 JUMPDEST DUP2 SLOAD DUP2 MSTORE SWAP1 PUSH1 0x1 ADD SWAP1 PUSH1 0x20 ADD DUP1 DUP4 GT PUSH2 0x62D JUMPI DUP3 SWAP1 SUB PUSH1 0x1F AND DUP3 ADD SWAP2 JUMPDEST POP POP POP POP POP DUP2 JUMP JUMPDEST PUSH2 0x65A PUSH2 0xCCB JUMP JUMPDEST PUSH2 0x664 DUP3 DUP3 PUSH2 0xCF8 JUMP JUMPDEST POP POP JUMP JUMPDEST PUSH1 0x4 DUP1 SLOAD SWAP1 PUSH1 0x0 PUSH2 0x678 DUP4 PUSH2 0x191E JUMP JUMPDEST SWAP1 SWAP2 SSTORE POP POP PUSH1 0x4 SLOAD PUSH1 0x40 MLOAD PUSH1 0x0 SWAP1 PUSH2 0x696 SWAP1 DUP8 SWAP1 DUP8 SWAP1 PUSH1 0x20 ADD PUSH2 0x1960 JUMP JUMPDEST PUSH1 0x40 MLOAD PUSH1 0x20 DUP2 DUP4 SUB SUB DUP2 MSTORE SWAP1 PUSH1 0x40 MSTORE SWAP1 POP PUSH2 0x6D5 DUP8 DUP3 PUSH2 0x6B9 DUP11 PUSH1 0x1 DUP10 DUP10 PUSH2 0x825 JUMP JUMPDEST PUSH1 0x40 MLOAD DUP1 PUSH1 0x40 ADD PUSH1 0x40 MSTORE DUP1 CALLVALUE DUP2 MSTORE PUSH1 0x20 ADD PUSH1 0x0 DUP2 MSTORE POP CALLER PUSH2 0xD4D JUMP JUMPDEST POP DUP7 PUSH4 0xFFFFFFFF AND PUSH32 0x9CDA5EAA5FC52C2511DF38A1C52FA5346D169B42263506DC06E34E770DF2DC3A DUP8 DUP8 DUP6 PUSH1 0x40 MLOAD PUSH2 0x710 SWAP4 SWAP3 SWAP2 SWAP1 PUSH2 0x1974 JUMP JUMPDEST PUSH1 0x40 MLOAD DUP1 SWAP2 SUB SWAP1 LOG2 POP POP POP POP POP POP POP JUMP JUMPDEST PUSH1 0x2 PUSH1 0x20 SWAP1 DUP2 MSTORE PUSH1 0x0 SWAP3 DUP4 MSTORE PUSH1 0x40 DUP1 DUP5 KECCAK256 SWAP1 SWAP2 MSTORE SWAP1 DUP3 MSTORE SWAP1 KECCAK256 DUP1 SLOAD PUSH2 0x5D1 SWAP1 PUSH2 0x18D4 JUMP JUMPDEST PUSH2 0x74D PUSH2 0xCCB JUMP JUMPDEST PUSH2 0x757 PUSH1 0x0 PUSH2 0xE58 JUMP JUMPDEST JUMP JUMPDEST PUSH1 0x0 JUMPDEST SWAP3 SWAP2 POP POP JUMP JUMPDEST PUSH1 0x1 PUSH1 0x1 PUSH1 0xA0 SHL SUB DUP2 AND ADDRESS EQ JUMPDEST SWAP5 SWAP4 POP POP POP POP JUMP JUMPDEST PUSH1 0x0 PUSH2 0x782 CHAINID PUSH2 0xEA8 JUMP JUMPDEST PUSH1 0x40 MLOAD PUSH1 0x20 ADD PUSH2 0x792 SWAP2 SWAP1 PUSH2 0x1998 JUMP JUMPDEST PUSH1 0x40 DUP1 MLOAD PUSH1 0x1F NOT DUP2 DUP5 SUB ADD DUP2 MSTORE PUSH1 0x20 DUP4 ADD DUP3 MSTORE PUSH1 0x0 DUP4 MSTORE SWAP1 MLOAD PUSH4 0x1B77CB1 PUSH1 0xE5 SHL DUP2 MSTORE SWAP1 SWAP3 POP ADDRESS SWAP1 PUSH4 0x36EF9620 SWAP1 CALLVALUE SWAP1 PUSH2 0x7D4 SWAP1 DUP8 SWAP1 DUP8 SWAP1 DUP8 SWAP1 PUSH1 0x4 ADD PUSH2 0x19DC JUMP JUMPDEST PUSH1 0x0 PUSH1 0x40 MLOAD DUP1 DUP4 SUB DUP2 DUP6 DUP9 DUP1 EXTCODESIZE ISZERO DUP1 ISZERO PUSH2 0x7ED JUMPI PUSH1 0x0 DUP1 REVERT JUMPDEST POP GAS CALL ISZERO DUP1 ISZERO PUSH2 0x801 JUMPI RETURNDATASIZE PUSH1 0x0 DUP1 RETURNDATACOPY RETURNDATASIZE PUSH1 0x0 REVERT JUMPDEST POP POP POP POP POP POP POP POP JUMP JUMPDEST PUSH2 0x813 PUSH2 0xCCB JUMP JUMPDEST PUSH2 0x664 PUSH2 0x820 DUP3 DUP5 PUSH2 0x1ADC JUMP JUMPDEST PUSH2 0xFD3 JUMP JUMPDEST PUSH4 0xFFFFFFFF DUP5 AND PUSH1 0x0 SWAP1 DUP2 MSTORE PUSH1 0x2 PUSH1 0x20 SWAP1 DUP2 MSTORE PUSH1 0x40 DUP1 DUP4 KECCAK256 PUSH2 0xFFFF DUP8 AND DUP5 MSTORE SWAP1 SWAP2 MSTORE DUP2 KECCAK256 DUP1 SLOAD PUSH1 0x60 SWAP3 SWAP2 SWAP1 PUSH2 0x859 SWAP1 PUSH2 0x18D4 JUMP JUMPDEST DUP1 PUSH1 0x1F ADD PUSH1 0x20 DUP1 SWAP2 DIV MUL PUSH1 0x20 ADD PUSH1 0x40 MLOAD SWAP1 DUP2 ADD PUSH1 0x40 MSTORE DUP1 SWAP3 SWAP2 SWAP1 DUP2 DUP2 MSTORE PUSH1 0x20 ADD DUP3 DUP1 SLOAD PUSH2 0x885 SWAP1 PUSH2 0x18D4 JUMP JUMPDEST DUP1 ISZERO PUSH2 0x8D2 JUMPI DUP1 PUSH1 0x1F LT PUSH2 0x8A7 JUMPI PUSH2 0x100 DUP1 DUP4 SLOAD DIV MUL DUP4 MSTORE SWAP2 PUSH1 0x20 ADD SWAP2 PUSH2 0x8D2 JUMP JUMPDEST DUP3 ADD SWAP2 SWAP1 PUSH1 0x0 MSTORE PUSH1 0x20 PUSH1 0x0 KECCAK256 SWAP1 JUMPDEST DUP2 SLOAD DUP2 MSTORE SWAP1 PUSH1 0x1 ADD SWAP1 PUSH1 0x20 ADD DUP1 DUP4 GT PUSH2 0x8B5 JUMPI DUP3 SWAP1 SUB PUSH1 0x1F AND DUP3 ADD SWAP2 JUMPDEST POP POP POP POP POP SWAP1 POP DUP1 MLOAD PUSH1 0x0 SUB PUSH2 0x922 JUMPI DUP4 DUP4 DUP1 DUP1 PUSH1 0x1F ADD PUSH1 0x20 DUP1 SWAP2 DIV MUL PUSH1 0x20 ADD PUSH1 0x40 MLOAD SWAP1 DUP2 ADD PUSH1 0x40 MSTORE DUP1 SWAP4 SWAP3 SWAP2 SWAP1 DUP2 DUP2 MSTORE PUSH1 0x20 ADD DUP4 DUP4 DUP1 DUP3 DUP5 CALLDATACOPY PUSH1 0x0 SWAP3 ADD SWAP2 SWAP1 SWAP2 MSTORE POP SWAP3 SWAP5 POP PUSH2 0x76F SWAP4 POP POP POP POP JUMP JUMPDEST PUSH1 0x0 DUP4 SWAP1 SUB PUSH2 0x932 JUMPI SWAP1 POP PUSH2 0x76F JUMP JUMPDEST PUSH1 0x2 DUP4 LT PUSH2 0x9B0 JUMPI PUSH2 0x979 DUP5 DUP5 DUP1 DUP1 PUSH1 0x1F ADD PUSH1 0x20 DUP1 SWAP2 DIV MUL PUSH1 0x20 ADD PUSH1 0x40 MLOAD SWAP1 DUP2 ADD PUSH1 0x40 MSTORE DUP1 SWAP4 SWAP3 SWAP2 SWAP1 DUP2 DUP2 MSTORE PUSH1 0x20 ADD DUP4 DUP4 DUP1 DUP3 DUP5 CALLDATACOPY PUSH1 0x0 SWAP3 ADD SWAP2 SWAP1 SWAP2 MSTORE POP PUSH2 0x10E5 SWAP3 POP POP POP JUMP JUMPDEST DUP1 PUSH2 0x987 DUP5 PUSH1 0x2 DUP2 DUP9 PUSH2 0x1BC4 JUMP JUMPDEST PUSH1 0x40 MLOAD PUSH1 0x20 ADD PUSH2 0x999 SWAP4 SWAP3 SWAP2 SWAP1 PUSH2 0x1BEE JUMP JUMPDEST PUSH1 0x40 MLOAD PUSH1 0x20 DUP2 DUP4 SUB SUB DUP2 MSTORE SWAP1 PUSH1 0x40 MSTORE SWAP2 POP POP PUSH2 0x76F JUMP JUMPDEST DUP4 DUP4 PUSH1 0x40 MLOAD PUSH4 0x9A6D49CD PUSH1 0xE0 SHL DUP2 MSTORE PUSH1 0x4 ADD PUSH2 0x54B SWAP3 SWAP2 SWAP1 PUSH2 0x1960 JUMP JUMPDEST PUSH1 0x0 DUP1 PUSH1 0x60 PUSH1 0x4 SLOAD PUSH1 0x5 SLOAD PUSH1 0x3 DUP1 DUP1 SLOAD PUSH2 0x9E6 SWAP1 PUSH2 0x18D4 JUMP JUMPDEST DUP1 PUSH1 0x1F ADD PUSH1 0x20 DUP1 SWAP2 DIV MUL PUSH1 0x20 ADD PUSH1 0x40 MLOAD SWAP1 DUP2 ADD PUSH1 0x40 MSTORE DUP1 SWAP3 SWAP2 SWAP1 DUP2 DUP2 MSTORE PUSH1 0x20 ADD DUP3 DUP1 SLOAD PUSH2 0xA12 SWAP1 PUSH2 0x18D4 JUMP JUMPDEST DUP1 ISZERO PUSH2 0xA5F JUMPI DUP1 PUSH1 0x1F LT PUSH2 0xA34 JUMPI PUSH2 0x100 DUP1 DUP4 SLOAD DIV MUL DUP4 MSTORE SWAP2 PUSH1 0x20 ADD SWAP2 PUSH2 0xA5F JUMP JUMPDEST DUP3 ADD SWAP2 SWAP1 PUSH1 0x0 MSTORE PUSH1 0x20 PUSH1 0x0 KECCAK256 SWAP1 JUMPDEST DUP2 SLOAD DUP2 MSTORE SWAP1 PUSH1 0x1 ADD SWAP1 PUSH1 0x20 ADD DUP1 DUP4 GT PUSH2 0xA42 JUMPI DUP3 SWAP1 SUB PUSH1 0x1F AND DUP3 ADD SWAP2 JUMPDEST POP POP POP POP POP SWAP1 POP SWAP3 POP SWAP3 POP SWAP3 POP SWAP1 SWAP2 SWAP3 JUMP JUMPDEST PUSH2 0xA79 PUSH2 0xCCB JUMP JUMPDEST PUSH1 0x40 MLOAD PUSH4 0xCA5EB5E1 PUSH1 0xE0 SHL DUP2 MSTORE PUSH1 0x1 PUSH1 0x1 PUSH1 0xA0 SHL SUB DUP3 DUP2 AND PUSH1 0x4 DUP4 ADD MSTORE PUSH32 0x0 AND SWAP1 PUSH4 0xCA5EB5E1 SWAP1 PUSH1 0x24 ADD PUSH1 0x0 PUSH1 0x40 MLOAD DUP1 DUP4 SUB DUP2 PUSH1 0x0 DUP8 DUP1 EXTCODESIZE ISZERO DUP1 ISZERO PUSH2 0xADC JUMPI PUSH1 0x0 DUP1 REVERT JUMPDEST POP GAS CALL ISZERO DUP1 ISZERO PUSH2 0xAF0 JUMPI RETURNDATASIZE PUSH1 0x0 DUP1 RETURNDATACOPY RETURNDATASIZE PUSH1 0x0 REVERT JUMPDEST POP POP POP POP POP JUMP JUMPDEST PUSH1 0x40 DUP1 MLOAD DUP1 DUP3 ADD SWAP1 SWAP2 MSTORE PUSH1 0x0 DUP1 DUP3 MSTORE PUSH1 0x20 DUP3 ADD MSTORE PUSH1 0x0 DUP7 DUP7 PUSH1 0x40 MLOAD PUSH1 0x20 ADD PUSH2 0xB20 SWAP3 SWAP2 SWAP1 PUSH2 0x1960 JUMP JUMPDEST PUSH1 0x40 MLOAD PUSH1 0x20 DUP2 DUP4 SUB SUB DUP2 MSTORE SWAP1 PUSH1 0x40 MSTORE SWAP1 POP PUSH2 0xB49 DUP9 DUP3 PUSH2 0xB43 DUP12 PUSH1 0x1 DUP11 DUP11 PUSH2 0x825 JUMP JUMPDEST DUP7 PUSH2 0x1111 JUMP JUMPDEST SWAP9 SWAP8 POP POP POP POP POP POP POP POP JUMP JUMPDEST PUSH2 0xB5D PUSH2 0xCCB JUMP JUMPDEST PUSH1 0x1 PUSH1 0x1 PUSH1 0xA0 SHL SUB DUP2 AND PUSH2 0xB87 JUMPI PUSH1 0x40 MLOAD PUSH4 0x1E4FBDF7 PUSH1 0xE0 SHL DUP2 MSTORE PUSH1 0x0 PUSH1 0x4 DUP3 ADD MSTORE PUSH1 0x24 ADD PUSH2 0x54B JUMP JUMPDEST PUSH2 0xB90 DUP2 PUSH2 0xE58 JUMP JUMPDEST POP JUMP JUMPDEST PUSH1 0x0 PUSH1 0x20 DUP3 ADD DUP1 CALLDATALOAD SWAP1 PUSH1 0x1 SWAP1 DUP4 SWAP1 PUSH2 0xBAB SWAP1 DUP7 PUSH2 0x164B JUMP JUMPDEST PUSH4 0xFFFFFFFF AND DUP2 MSTORE PUSH1 0x20 DUP2 ADD SWAP2 SWAP1 SWAP2 MSTORE PUSH1 0x40 ADD PUSH1 0x0 KECCAK256 SLOAD EQ SWAP3 SWAP2 POP POP JUMP JUMPDEST PUSH4 0xFFFFFFFF DUP2 AND PUSH1 0x0 SWAP1 DUP2 MSTORE PUSH1 0x1 PUSH1 0x20 MSTORE PUSH1 0x40 DUP2 KECCAK256 SLOAD DUP1 PUSH2 0x75C JUMPI PUSH1 0x40 MLOAD PUSH4 0xF6FF4FB7 PUSH1 0xE0 SHL DUP2 MSTORE PUSH4 0xFFFFFFFF DUP5 AND PUSH1 0x4 DUP3 ADD MSTORE PUSH1 0x24 ADD PUSH2 0x54B JUMP JUMPDEST PUSH1 0x0 PUSH2 0xC13 DUP6 DUP8 ADD DUP8 PUSH2 0x1C16 JUMP JUMPDEST SWAP1 POP PUSH1 0x3 PUSH2 0xC21 DUP3 DUP3 PUSH2 0x1CAF JUMP JUMPDEST POP PUSH1 0x5 DUP1 SLOAD SWAP1 PUSH1 0x0 PUSH2 0xC32 DUP4 PUSH2 0x191E JUMP JUMPDEST SWAP1 SWAP2 SSTORE POP PUSH1 0x6 SWAP1 POP PUSH1 0x0 PUSH2 0xC49 PUSH1 0x20 DUP12 ADD DUP12 PUSH2 0x164B JUMP JUMPDEST PUSH4 0xFFFFFFFF AND DUP2 MSTORE PUSH1 0x20 DUP2 ADD SWAP2 SWAP1 SWAP2 MSTORE PUSH1 0x40 ADD PUSH1 0x0 SWAP1 DUP2 KECCAK256 DUP1 SLOAD SWAP2 PUSH2 0xC6D DUP4 PUSH2 0x191E JUMP JUMPDEST SWAP1 SWAP2 SSTORE POP PUSH2 0xC80 SWAP1 POP PUSH1 0x20 DUP10 ADD DUP10 PUSH2 0x164B JUMP JUMPDEST PUSH4 0xFFFFFFFF AND PUSH32 0x451F60FD933734CA5A268884123EB0D3F0C8B81395F69440755531998A80763D DUP3 PUSH1 0x5 SLOAD PUSH1 0x40 MLOAD PUSH2 0xCB9 SWAP3 SWAP2 SWAP1 PUSH2 0x1D6E JUMP JUMPDEST PUSH1 0x40 MLOAD DUP1 SWAP2 SUB SWAP1 LOG2 POP POP POP POP POP POP POP POP JUMP JUMPDEST PUSH1 0x0 SLOAD PUSH1 0x1 PUSH1 0x1 PUSH1 0xA0 SHL SUB AND CALLER EQ PUSH2 0x757 JUMPI PUSH1 0x40 MLOAD PUSH4 0x118CDAA7 PUSH1 0xE0 SHL DUP2 MSTORE CALLER PUSH1 0x4 DUP3 ADD MSTORE PUSH1 0x24 ADD PUSH2 0x54B JUMP JUMPDEST PUSH4 0xFFFFFFFF DUP3 AND PUSH1 0x0 DUP2 DUP2 MSTORE PUSH1 0x1 PUSH1 0x20 SWAP1 DUP2 MSTORE PUSH1 0x40 SWAP2 DUP3 SWAP1 KECCAK256 DUP5 SWAP1 SSTORE DUP2 MLOAD SWAP3 DUP4 MSTORE DUP3 ADD DUP4 SWAP1 MSTORE PUSH32 0x238399D427B947898EDB290F5FF0F9109849B1C3BA196A42E35F00C50A54B98B SWAP2 ADD PUSH1 0x40 MLOAD DUP1 SWAP2 SUB SWAP1 LOG1 POP POP JUMP JUMPDEST PUSH2 0xD55 PUSH2 0x13C3 JUMP JUMPDEST PUSH1 0x0 PUSH2 0xD64 DUP5 PUSH1 0x0 ADD MLOAD PUSH2 0x11F2 JUMP JUMPDEST PUSH1 0x20 DUP6 ADD MLOAD SWAP1 SWAP2 POP ISZERO PUSH2 0xD7E JUMPI PUSH2 0xD7E DUP5 PUSH1 0x20 ADD MLOAD PUSH2 0x121A JUMP JUMPDEST PUSH32 0x0 PUSH1 0x1 PUSH1 0x1 PUSH1 0xA0 SHL SUB AND PUSH4 0x2637A450 DUP3 PUSH1 0x40 MLOAD DUP1 PUSH1 0xA0 ADD PUSH1 0x40 MSTORE DUP1 DUP12 PUSH4 0xFFFFFFFF AND DUP2 MSTORE PUSH1 0x20 ADD PUSH2 0xDCE DUP13 PUSH2 0xBC9 JUMP JUMPDEST DUP2 MSTORE PUSH1 0x20 ADD DUP11 DUP2 MSTORE PUSH1 0x20 ADD DUP10 DUP2 MSTORE PUSH1 0x20 ADD PUSH1 0x0 DUP10 PUSH1 0x20 ADD MLOAD GT ISZERO ISZERO DUP2 MSTORE POP DUP7 PUSH1 0x40 MLOAD DUP5 PUSH4 0xFFFFFFFF AND PUSH1 0xE0 SHL DUP2 MSTORE PUSH1 0x4 ADD PUSH2 0xE0A SWAP3 SWAP2 SWAP1 PUSH2 0x1D90 JUMP JUMPDEST PUSH1 0x80 PUSH1 0x40 MLOAD DUP1 DUP4 SUB DUP2 DUP6 DUP9 GAS CALL ISZERO DUP1 ISZERO PUSH2 0xE28 JUMPI RETURNDATASIZE PUSH1 0x0 DUP1 RETURNDATACOPY RETURNDATASIZE PUSH1 0x0 REVERT JUMPDEST POP POP POP POP POP PUSH1 0x40 MLOAD RETURNDATASIZE PUSH1 0x1F NOT PUSH1 0x1F DUP3 ADD AND DUP3 ADD DUP1 PUSH1 0x40 MSTORE POP DUP2 ADD SWAP1 PUSH2 0xE4D SWAP2 SWAP1 PUSH2 0x1E57 JUMP JUMPDEST SWAP8 SWAP7 POP POP POP POP POP POP POP JUMP JUMPDEST PUSH1 0x0 DUP1 SLOAD PUSH1 0x1 PUSH1 0x1 PUSH1 0xA0 SHL SUB DUP4 DUP2 AND PUSH1 0x1 PUSH1 0x1 PUSH1 0xA0 SHL SUB NOT DUP4 AND DUP2 OR DUP5 SSTORE PUSH1 0x40 MLOAD SWAP2 SWAP1 SWAP3 AND SWAP3 DUP4 SWAP2 PUSH32 0x8BE0079C531659141344CD1FD0A4F28419497F9722A3DAAFE3B4186F6B6457E0 SWAP2 SWAP1 LOG3 POP POP JUMP JUMPDEST PUSH1 0x60 DUP2 PUSH1 0x0 SUB PUSH2 0xECF JUMPI POP POP PUSH1 0x40 DUP1 MLOAD DUP1 DUP3 ADD SWAP1 SWAP2 MSTORE PUSH1 0x1 DUP2 MSTORE PUSH1 0x3 PUSH1 0xFC SHL PUSH1 0x20 DUP3 ADD MSTORE SWAP1 JUMP JUMPDEST DUP2 PUSH1 0x0 JUMPDEST DUP2 ISZERO PUSH2 0xEF9 JUMPI DUP1 PUSH2 0xEE3 DUP2 PUSH2 0x191E JUMP JUMPDEST SWAP2 POP PUSH2 0xEF2 SWAP1 POP PUSH1 0xA DUP4 PUSH2 0x1EAD JUMP JUMPDEST SWAP2 POP PUSH2 0xED3 JUMP JUMPDEST PUSH1 0x0 DUP2 PUSH1 0x1 PUSH1 0x1 PUSH1 0x40 SHL SUB DUP2 GT ISZERO PUSH2 0xF13 JUMPI PUSH2 0xF13 PUSH2 0x1A17 JUMP JUMPDEST PUSH1 0x40 MLOAD SWAP1 DUP1 DUP3 MSTORE DUP1 PUSH1 0x1F ADD PUSH1 0x1F NOT AND PUSH1 0x20 ADD DUP3 ADD PUSH1 0x40 MSTORE DUP1 ISZERO PUSH2 0xF3D JUMPI PUSH1 0x20 DUP3 ADD DUP2 DUP1 CALLDATASIZE DUP4 CALLDATACOPY ADD SWAP1 POP JUMPDEST POP SWAP1 POP DUP2 JUMPDEST DUP6 ISZERO PUSH2 0xFCA JUMPI PUSH2 0xF53 PUSH1 0x1 DUP3 PUSH2 0x1ECF JUMP JUMPDEST SWAP1 POP PUSH1 0x0 PUSH2 0xF62 PUSH1 0xA DUP9 PUSH2 0x1EAD JUMP JUMPDEST PUSH2 0xF6D SWAP1 PUSH1 0xA PUSH2 0x1EE2 JUMP JUMPDEST PUSH2 0xF77 SWAP1 DUP9 PUSH2 0x1ECF JUMP JUMPDEST PUSH2 0xF82 SWAP1 PUSH1 0x30 PUSH2 0x1EF9 JUMP JUMPDEST SWAP1 POP PUSH1 0x0 DUP2 PUSH1 0xF8 SHL SWAP1 POP DUP1 DUP5 DUP5 DUP2 MLOAD DUP2 LT PUSH2 0xF9F JUMPI PUSH2 0xF9F PUSH2 0x1F12 JUMP JUMPDEST PUSH1 0x20 ADD ADD SWAP1 PUSH1 0x1 PUSH1 0x1 PUSH1 0xF8 SHL SUB NOT AND SWAP1 DUP2 PUSH1 0x0 BYTE SWAP1 MSTORE8 POP PUSH2 0xFC1 PUSH1 0xA DUP10 PUSH2 0x1EAD JUMP JUMPDEST SWAP8 POP POP POP PUSH2 0xF42 JUMP JUMPDEST POP SWAP5 SWAP4 POP POP POP POP JUMP JUMPDEST PUSH1 0x0 JUMPDEST DUP2 MLOAD DUP2 LT ISZERO PUSH2 0x10AA JUMPI PUSH2 0x1005 DUP3 DUP3 DUP2 MLOAD DUP2 LT PUSH2 0xFF4 JUMPI PUSH2 0xFF4 PUSH2 0x1F12 JUMP JUMPDEST PUSH1 0x20 MUL PUSH1 0x20 ADD ADD MLOAD PUSH1 0x40 ADD MLOAD PUSH2 0x10E5 JUMP JUMPDEST DUP2 DUP2 DUP2 MLOAD DUP2 LT PUSH2 0x1017 JUMPI PUSH2 0x1017 PUSH2 0x1F12 JUMP JUMPDEST PUSH1 0x20 MUL PUSH1 0x20 ADD ADD MLOAD PUSH1 0x40 ADD MLOAD PUSH1 0x2 PUSH1 0x0 DUP5 DUP5 DUP2 MLOAD DUP2 LT PUSH2 0x1039 JUMPI PUSH2 0x1039 PUSH2 0x1F12 JUMP JUMPDEST PUSH1 0x20 MUL PUSH1 0x20 ADD ADD MLOAD PUSH1 0x0 ADD MLOAD PUSH4 0xFFFFFFFF AND PUSH4 0xFFFFFFFF AND DUP2 MSTORE PUSH1 0x20 ADD SWAP1 DUP2 MSTORE PUSH1 0x20 ADD PUSH1 0x0 KECCAK256 PUSH1 0x0 DUP5 DUP5 DUP2 MLOAD DUP2 LT PUSH2 0x1073 JUMPI PUSH2 0x1073 PUSH2 0x1F12 JUMP JUMPDEST PUSH1 0x20 MUL PUSH1 0x20 ADD ADD MLOAD PUSH1 0x20 ADD MLOAD PUSH2 0xFFFF AND PUSH2 0xFFFF AND DUP2 MSTORE PUSH1 0x20 ADD SWAP1 DUP2 MSTORE PUSH1 0x20 ADD PUSH1 0x0 KECCAK256 SWAP1 DUP2 PUSH2 0x10A1 SWAP2 SWAP1 PUSH2 0x1CAF JUMP JUMPDEST POP PUSH1 0x1 ADD PUSH2 0xFD6 JUMP JUMPDEST POP PUSH32 0xBE4864A8E820971C0247F5992E2DA559595F7BF076A21CB5928D443D2A13B674 DUP2 PUSH1 0x40 MLOAD PUSH2 0x10DA SWAP2 SWAP1 PUSH2 0x1F28 JUMP JUMPDEST PUSH1 0x40 MLOAD DUP1 SWAP2 SUB SWAP1 LOG1 POP JUMP JUMPDEST PUSH1 0x2 DUP2 ADD MLOAD PUSH2 0xFFFF DUP2 AND PUSH1 0x3 EQ PUSH2 0x664 JUMPI DUP2 PUSH1 0x40 MLOAD PUSH4 0x9A6D49CD PUSH1 0xE0 SHL DUP2 MSTORE PUSH1 0x4 ADD PUSH2 0x54B SWAP2 SWAP1 PUSH2 0x156E JUMP JUMPDEST PUSH1 0x40 DUP1 MLOAD DUP1 DUP3 ADD SWAP1 SWAP2 MSTORE PUSH1 0x0 DUP1 DUP3 MSTORE PUSH1 0x20 DUP3 ADD MSTORE PUSH32 0x0 PUSH1 0x1 PUSH1 0x1 PUSH1 0xA0 SHL SUB AND PUSH4 0xDDC28C58 PUSH1 0x40 MLOAD DUP1 PUSH1 0xA0 ADD PUSH1 0x40 MSTORE DUP1 DUP9 PUSH4 0xFFFFFFFF AND DUP2 MSTORE PUSH1 0x20 ADD PUSH2 0x1174 DUP10 PUSH2 0xBC9 JUMP JUMPDEST DUP2 MSTORE PUSH1 0x20 ADD DUP8 DUP2 MSTORE PUSH1 0x20 ADD DUP7 DUP2 MSTORE PUSH1 0x20 ADD DUP6 ISZERO ISZERO DUP2 MSTORE POP ADDRESS PUSH1 0x40 MLOAD DUP4 PUSH4 0xFFFFFFFF AND PUSH1 0xE0 SHL DUP2 MSTORE PUSH1 0x4 ADD PUSH2 0x11A9 SWAP3 SWAP2 SWAP1 PUSH2 0x1D90 JUMP JUMPDEST PUSH1 0x40 DUP1 MLOAD DUP1 DUP4 SUB DUP2 DUP7 GAS STATICCALL ISZERO DUP1 ISZERO PUSH2 0x11C5 JUMPI RETURNDATASIZE PUSH1 0x0 DUP1 RETURNDATACOPY RETURNDATASIZE PUSH1 0x0 REVERT JUMPDEST POP POP POP POP PUSH1 0x40 MLOAD RETURNDATASIZE PUSH1 0x1F NOT PUSH1 0x1F DUP3 ADD AND DUP3 ADD DUP1 PUSH1 0x40 MSTORE POP DUP2 ADD SWAP1 PUSH2 0x11E9 SWAP2 SWAP1 PUSH2 0x1FB3 JUMP JUMPDEST SWAP6 SWAP5 POP POP POP POP POP JUMP JUMPDEST PUSH1 0x0 DUP2 CALLVALUE EQ PUSH2 0x1216 JUMPI PUSH1 0x40 MLOAD PUSH4 0x4FB8209 PUSH1 0xE5 SHL DUP2 MSTORE CALLVALUE PUSH1 0x4 DUP3 ADD MSTORE PUSH1 0x24 ADD PUSH2 0x54B JUMP JUMPDEST POP SWAP1 JUMP JUMPDEST PUSH1 0x0 PUSH32 0x0 PUSH1 0x1 PUSH1 0x1 PUSH1 0xA0 SHL SUB AND PUSH4 0xE4FE1D94 PUSH1 0x40 MLOAD DUP2 PUSH4 0xFFFFFFFF AND PUSH1 0xE0 SHL DUP2 MSTORE PUSH1 0x4 ADD PUSH1 0x20 PUSH1 0x40 MLOAD DUP1 DUP4 SUB DUP2 DUP7 GAS STATICCALL ISZERO DUP1 ISZERO PUSH2 0x127A JUMPI RETURNDATASIZE PUSH1 0x0 DUP1 RETURNDATACOPY RETURNDATASIZE PUSH1 0x0 REVERT JUMPDEST POP POP POP POP PUSH1 0x40 MLOAD RETURNDATASIZE PUSH1 0x1F NOT PUSH1 0x1F DUP3 ADD AND DUP3 ADD DUP1 PUSH1 0x40 MSTORE POP DUP2 ADD SWAP1 PUSH2 0x129E SWAP2 SWAP1 PUSH2 0x1FCF JUMP JUMPDEST SWAP1 POP PUSH1 0x1 PUSH1 0x1 PUSH1 0xA0 SHL SUB DUP2 AND PUSH2 0x12C7 JUMPI PUSH1 0x40 MLOAD PUSH4 0x29B99A95 PUSH1 0xE1 SHL DUP2 MSTORE PUSH1 0x4 ADD PUSH1 0x40 MLOAD DUP1 SWAP2 SUB SWAP1 REVERT JUMPDEST PUSH1 0x40 DUP1 MLOAD CALLER PUSH1 0x24 DUP3 ADD DUP2 SWAP1 MSTORE PUSH32 0x0 PUSH1 0x1 PUSH1 0x1 PUSH1 0xA0 SHL SUB DUP2 DUP2 AND PUSH1 0x44 DUP6 ADD MSTORE PUSH1 0x64 DUP1 DUP6 ADD DUP9 SWAP1 MSTORE DUP6 MLOAD DUP1 DUP7 SUB SWAP1 SWAP2 ADD DUP2 MSTORE PUSH1 0x84 SWAP1 SWAP5 ADD SWAP1 SWAP5 MSTORE PUSH1 0x20 DUP4 ADD DUP1 MLOAD PUSH1 0x1 PUSH1 0x1 PUSH1 0xE0 SHL SUB AND PUSH4 0x23B872DD PUSH1 0xE0 SHL OR SWAP1 MSTORE PUSH2 0x664 SWAP4 DUP6 AND SWAP3 DUP7 SWAP1 PUSH2 0x134C SWAP1 DUP6 SWAP1 PUSH2 0x1352 JUMP JUMPDEST POP POP POP POP JUMP JUMPDEST PUSH1 0x0 DUP1 PUSH1 0x20 PUSH1 0x0 DUP5 MLOAD PUSH1 0x20 DUP7 ADD PUSH1 0x0 DUP9 GAS CALL DUP1 PUSH2 0x1375 JUMPI PUSH1 0x40 MLOAD RETURNDATASIZE PUSH1 0x0 DUP3 RETURNDATACOPY RETURNDATASIZE DUP2 REVERT JUMPDEST POP POP PUSH1 0x0 MLOAD RETURNDATASIZE SWAP2 POP DUP2 ISZERO PUSH2 0x138D JUMPI DUP1 PUSH1 0x1 EQ ISZERO PUSH2 0x139A JUMP JUMPDEST PUSH1 0x1 PUSH1 0x1 PUSH1 0xA0 SHL SUB DUP5 AND EXTCODESIZE ISZERO JUMPDEST ISZERO PUSH2 0x134C JUMPI PUSH1 0x40 MLOAD PUSH4 0x5274AFE7 PUSH1 0xE0 SHL DUP2 MSTORE PUSH1 0x1 PUSH1 0x1 PUSH1 0xA0 SHL SUB DUP6 AND PUSH1 0x4 DUP3 ADD MSTORE PUSH1 0x24 ADD PUSH2 0x54B JUMP JUMPDEST PUSH1 0x40 MLOAD DUP1 PUSH1 0x60 ADD PUSH1 0x40 MSTORE DUP1 PUSH1 0x0 DUP1 NOT AND DUP2 MSTORE PUSH1 0x20 ADD PUSH1 0x0 PUSH1 0x1 PUSH1 0x1 PUSH1 0x40 SHL SUB AND DUP2 MSTORE PUSH1 0x20 ADD PUSH2 0x1405 PUSH1 0x40 MLOAD DUP1 PUSH1 0x40 ADD PUSH1 0x40 MSTORE DUP1 PUSH1 0x0 DUP2 MSTORE PUSH1 0x20 ADD PUSH1 0x0 DUP2 MSTORE POP SWAP1 JUMP JUMPDEST SWAP1 MSTORE SWAP1 JUMP JUMPDEST PUSH1 0x0 PUSH1 0x60 DUP3 DUP5 SUB SLT ISZERO PUSH2 0x141C JUMPI PUSH1 0x0 DUP1 REVERT JUMPDEST POP SWAP2 SWAP1 POP JUMP JUMPDEST PUSH1 0x0 DUP1 DUP4 PUSH1 0x1F DUP5 ADD SLT PUSH2 0x1434 JUMPI PUSH1 0x0 DUP1 REVERT JUMPDEST POP DUP2 CALLDATALOAD PUSH1 0x1 PUSH1 0x1 PUSH1 0x40 SHL SUB DUP2 GT ISZERO PUSH2 0x144B JUMPI PUSH1 0x0 DUP1 REVERT JUMPDEST PUSH1 0x20 DUP4 ADD SWAP2 POP DUP4 PUSH1 0x20 DUP3 DUP6 ADD ADD GT ISZERO PUSH2 0x1463 JUMPI PUSH1 0x0 DUP1 REVERT JUMPDEST SWAP3 POP SWAP3 SWAP1 POP JUMP JUMPDEST PUSH1 0x1 PUSH1 0x1 PUSH1 0xA0 SHL SUB DUP2 AND DUP2 EQ PUSH2 0xB90 JUMPI PUSH1 0x0 DUP1 REVERT JUMPDEST PUSH1 0x0 DUP1 PUSH1 0x0 DUP1 PUSH1 0x0 DUP1 PUSH1 0x0 PUSH1 0xE0 DUP9 DUP11 SUB SLT ISZERO PUSH2 0x149A JUMPI PUSH1 0x0 DUP1 REVERT JUMPDEST PUSH2 0x14A4 DUP10 DUP10 PUSH2 0x140A JUMP JUMPDEST SWAP7 POP PUSH1 0x60 DUP9 ADD CALLDATALOAD SWAP6 POP PUSH1 0x80 DUP9 ADD CALLDATALOAD PUSH1 0x1 PUSH1 0x1 PUSH1 0x40 SHL SUB DUP1 DUP3 GT ISZERO PUSH2 0x14C7 JUMPI PUSH1 0x0 DUP1 REVERT JUMPDEST PUSH2 0x14D3 DUP12 DUP4 DUP13 ADD PUSH2 0x1422 JUMP JUMPDEST SWAP1 SWAP8 POP SWAP6 POP PUSH1 0xA0 DUP11 ADD CALLDATALOAD SWAP2 POP PUSH2 0x14E8 DUP3 PUSH2 0x146A JUMP JUMPDEST SWAP1 SWAP4 POP PUSH1 0xC0 DUP10 ADD CALLDATALOAD SWAP1 DUP1 DUP3 GT ISZERO PUSH2 0x14FE JUMPI PUSH1 0x0 DUP1 REVERT JUMPDEST POP PUSH2 0x150B DUP11 DUP3 DUP12 ADD PUSH2 0x1422 JUMP JUMPDEST SWAP9 SWAP12 SWAP8 SWAP11 POP SWAP6 SWAP9 POP SWAP4 SWAP7 SWAP3 SWAP6 SWAP3 SWAP4 POP POP POP JUMP JUMPDEST PUSH1 0x0 JUMPDEST DUP4 DUP2 LT ISZERO PUSH2 0x1539 JUMPI DUP2 DUP2 ADD MLOAD DUP4 DUP3 ADD MSTORE PUSH1 0x20 ADD PUSH2 0x1521 JUMP JUMPDEST POP POP PUSH1 0x0 SWAP2 ADD MSTORE JUMP JUMPDEST PUSH1 0x0 DUP2 MLOAD DUP1 DUP5 MSTORE PUSH2 0x155A DUP2 PUSH1 0x20 DUP7 ADD PUSH1 0x20 DUP7 ADD PUSH2 0x151E JUMP JUMPDEST PUSH1 0x1F ADD PUSH1 0x1F NOT AND SWAP3 SWAP1 SWAP3 ADD PUSH1 0x20 ADD SWAP3 SWAP2 POP POP JUMP JUMPDEST PUSH1 0x20 DUP2 MSTORE PUSH1 0x0 PUSH2 0x1581 PUSH1 0x20 DUP4 ADD DUP5 PUSH2 0x1542 JUMP JUMPDEST SWAP4 SWAP3 POP POP POP JUMP JUMPDEST DUP1 CALLDATALOAD PUSH4 0xFFFFFFFF DUP2 AND DUP2 EQ PUSH2 0x159C JUMPI PUSH1 0x0 DUP1 REVERT JUMPDEST SWAP2 SWAP1 POP JUMP JUMPDEST PUSH1 0x0 DUP1 PUSH1 0x40 DUP4 DUP6 SUB SLT ISZERO PUSH2 0x15B4 JUMPI PUSH1 0x0 DUP1 REVERT JUMPDEST PUSH2 0x15BD DUP4 PUSH2 0x1588 JUMP JUMPDEST SWAP5 PUSH1 0x20 SWAP4 SWAP1 SWAP4 ADD CALLDATALOAD SWAP4 POP POP POP JUMP JUMPDEST PUSH1 0x0 DUP1 PUSH1 0x0 DUP1 PUSH1 0x0 PUSH1 0x60 DUP7 DUP9 SUB SLT ISZERO PUSH2 0x15E3 JUMPI PUSH1 0x0 DUP1 REVERT JUMPDEST PUSH2 0x15EC DUP7 PUSH2 0x1588 JUMP JUMPDEST SWAP5 POP PUSH1 0x20 DUP7 ADD CALLDATALOAD PUSH1 0x1 PUSH1 0x1 PUSH1 0x40 SHL SUB DUP1 DUP3 GT ISZERO PUSH2 0x1608 JUMPI PUSH1 0x0 DUP1 REVERT JUMPDEST PUSH2 0x1614 DUP10 DUP4 DUP11 ADD PUSH2 0x1422 JUMP JUMPDEST SWAP1 SWAP7 POP SWAP5 POP PUSH1 0x40 DUP9 ADD CALLDATALOAD SWAP2 POP DUP1 DUP3 GT ISZERO PUSH2 0x162D JUMPI PUSH1 0x0 DUP1 REVERT JUMPDEST POP PUSH2 0x163A DUP9 DUP3 DUP10 ADD PUSH2 0x1422 JUMP JUMPDEST SWAP7 SWAP10 SWAP6 SWAP9 POP SWAP4 SWAP7 POP SWAP3 SWAP5 SWAP4 SWAP3 POP POP POP JUMP JUMPDEST PUSH1 0x0 PUSH1 0x20 DUP3 DUP5 SUB SLT ISZERO PUSH2 0x165D JUMPI PUSH1 0x0 DUP1 REVERT JUMPDEST PUSH2 0x1581 DUP3 PUSH2 0x1588 JUMP JUMPDEST DUP1 CALLDATALOAD PUSH2 0xFFFF DUP2 AND DUP2 EQ PUSH2 0x159C JUMPI PUSH1 0x0 DUP1 REVERT JUMPDEST PUSH1 0x0 DUP1 PUSH1 0x40 DUP4 DUP6 SUB SLT ISZERO PUSH2 0x168B JUMPI PUSH1 0x0 DUP1 REVERT JUMPDEST PUSH2 0x1694 DUP4 PUSH2 0x1588 JUMP JUMPDEST SWAP2 POP PUSH2 0x16A2 PUSH1 0x20 DUP5 ADD PUSH2 0x1666 JUMP JUMPDEST SWAP1 POP SWAP3 POP SWAP3 SWAP1 POP JUMP JUMPDEST PUSH1 0x0 DUP1 PUSH1 0x0 DUP1 PUSH1 0xA0 DUP6 DUP8 SUB SLT ISZERO PUSH2 0x16C1 JUMPI PUSH1 0x0 DUP1 REVERT JUMPDEST PUSH2 0x16CB DUP7 DUP7 PUSH2 0x140A JUMP JUMPDEST SWAP4 POP PUSH1 0x60 DUP6 ADD CALLDATALOAD PUSH1 0x1 PUSH1 0x1 PUSH1 0x40 SHL SUB DUP2 GT ISZERO PUSH2 0x16E6 JUMPI PUSH1 0x0 DUP1 REVERT JUMPDEST PUSH2 0x16F2 DUP8 DUP3 DUP9 ADD PUSH2 0x1422 JUMP JUMPDEST SWAP1 SWAP5 POP SWAP3 POP POP PUSH1 0x80 DUP6 ADD CALLDATALOAD PUSH2 0x1706 DUP2 PUSH2 0x146A JUMP JUMPDEST SWAP4 SWAP7 SWAP3 SWAP6 POP SWAP1 SWAP4 POP POP JUMP JUMPDEST PUSH1 0x0 DUP1 PUSH1 0x20 DUP4 DUP6 SUB SLT ISZERO PUSH2 0x1724 JUMPI PUSH1 0x0 DUP1 REVERT JUMPDEST DUP3 CALLDATALOAD PUSH1 0x1 PUSH1 0x1 PUSH1 0x40 SHL SUB DUP1 DUP3 GT ISZERO PUSH2 0x173B JUMPI PUSH1 0x0 DUP1 REVERT JUMPDEST DUP2 DUP6 ADD SWAP2 POP DUP6 PUSH1 0x1F DUP4 ADD SLT PUSH2 0x174F JUMPI PUSH1 0x0 DUP1 REVERT JUMPDEST DUP2 CALLDATALOAD DUP2 DUP2 GT ISZERO PUSH2 0x175E JUMPI PUSH1 0x0 DUP1 REVERT JUMPDEST DUP7 PUSH1 0x20 DUP3 PUSH1 0x5 SHL DUP6 ADD ADD GT ISZERO PUSH2 0x1773 JUMPI PUSH1 0x0 DUP1 REVERT JUMPDEST PUSH1 0x20 SWAP3 SWAP1 SWAP3 ADD SWAP7 SWAP2 SWAP6 POP SWAP1 SWAP4 POP POP POP POP JUMP JUMPDEST PUSH1 0x0 DUP1 PUSH1 0x0 DUP1 PUSH1 0x60 DUP6 DUP8 SUB SLT ISZERO PUSH2 0x179B JUMPI PUSH1 0x0 DUP1 REVERT JUMPDEST PUSH2 0x17A4 DUP6 PUSH2 0x1588 JUMP JUMPDEST SWAP4 POP PUSH2 0x17B2 PUSH1 0x20 DUP7 ADD PUSH2 0x1666 JUMP JUMPDEST SWAP3 POP PUSH1 0x40 DUP6 ADD CALLDATALOAD PUSH1 0x1 PUSH1 0x1 PUSH1 0x40 SHL SUB DUP2 GT ISZERO PUSH2 0x17CD JUMPI PUSH1 0x0 DUP1 REVERT JUMPDEST PUSH2 0x17D9 DUP8 DUP3 DUP9 ADD PUSH2 0x1422 JUMP JUMPDEST SWAP6 SWAP9 SWAP5 SWAP8 POP SWAP6 POP POP POP POP JUMP JUMPDEST DUP4 DUP2 MSTORE DUP3 PUSH1 0x20 DUP3 ADD MSTORE PUSH1 0x60 PUSH1 0x40 DUP3 ADD MSTORE PUSH1 0x0 PUSH2 0x11E9 PUSH1 0x60 DUP4 ADD DUP5 PUSH2 0x1542 JUMP JUMPDEST PUSH1 0x0 PUSH1 0x20 DUP3 DUP5 SUB SLT ISZERO PUSH2 0x1816 JUMPI PUSH1 0x0 DUP1 REVERT JUMPDEST DUP2 CALLDATALOAD PUSH2 0x1581 DUP2 PUSH2 0x146A JUMP JUMPDEST PUSH1 0x0 DUP1 PUSH1 0x0 DUP1 PUSH1 0x0 DUP1 PUSH1 0x80 DUP8 DUP10 SUB SLT ISZERO PUSH2 0x183A JUMPI PUSH1 0x0 DUP1 REVERT JUMPDEST PUSH2 0x1843 DUP8 PUSH2 0x1588 JUMP JUMPDEST SWAP6 POP PUSH1 0x20 DUP8 ADD CALLDATALOAD PUSH1 0x1 PUSH1 0x1 PUSH1 0x40 SHL SUB DUP1 DUP3 GT ISZERO PUSH2 0x185F JUMPI PUSH1 0x0 DUP1 REVERT JUMPDEST PUSH2 0x186B DUP11 DUP4 DUP12 ADD PUSH2 0x1422 JUMP JUMPDEST SWAP1 SWAP8 POP SWAP6 POP PUSH1 0x40 DUP10 ADD CALLDATALOAD SWAP2 POP DUP1 DUP3 GT ISZERO PUSH2 0x1884 JUMPI PUSH1 0x0 DUP1 REVERT JUMPDEST POP PUSH2 0x1891 DUP10 DUP3 DUP11 ADD PUSH2 0x1422 JUMP JUMPDEST SWAP1 SWAP5 POP SWAP3 POP POP PUSH1 0x60 DUP8 ADD CALLDATALOAD DUP1 ISZERO ISZERO DUP2 EQ PUSH2 0x18AA JUMPI PUSH1 0x0 DUP1 REVERT JUMPDEST DUP1 SWAP2 POP POP SWAP3 SWAP6 POP SWAP3 SWAP6 POP SWAP3 SWAP6 JUMP JUMPDEST PUSH1 0x0 PUSH1 0x60 DUP3 DUP5 SUB SLT ISZERO PUSH2 0x18CA JUMPI PUSH1 0x0 DUP1 REVERT JUMPDEST PUSH2 0x1581 DUP4 DUP4 PUSH2 0x140A JUMP JUMPDEST PUSH1 0x1 DUP2 DUP2 SHR SWAP1 DUP3 AND DUP1 PUSH2 0x18E8 JUMPI PUSH1 0x7F DUP3 AND SWAP2 POP JUMPDEST PUSH1 0x20 DUP3 LT DUP2 SUB PUSH2 0x141C JUMPI PUSH4 0x4E487B71 PUSH1 0xE0 SHL PUSH1 0x0 MSTORE PUSH1 0x22 PUSH1 0x4 MSTORE PUSH1 0x24 PUSH1 0x0 REVERT JUMPDEST PUSH4 0x4E487B71 PUSH1 0xE0 SHL PUSH1 0x0 MSTORE PUSH1 0x11 PUSH1 0x4 MSTORE PUSH1 0x24 PUSH1 0x0 REVERT JUMPDEST PUSH1 0x0 PUSH1 0x1 DUP3 ADD PUSH2 0x1930 JUMPI PUSH2 0x1930 PUSH2 0x1908 JUMP JUMPDEST POP PUSH1 0x1 ADD SWAP1 JUMP JUMPDEST DUP2 DUP4 MSTORE DUP2 DUP2 PUSH1 0x20 DUP6 ADD CALLDATACOPY POP PUSH1 0x0 DUP3 DUP3 ADD PUSH1 0x20 SWAP1 DUP2 ADD SWAP2 SWAP1 SWAP2 MSTORE PUSH1 0x1F SWAP1 SWAP2 ADD PUSH1 0x1F NOT AND SWAP1 SWAP2 ADD ADD SWAP1 JUMP JUMPDEST PUSH1 0x20 DUP2 MSTORE PUSH1 0x0 PUSH2 0x76F PUSH1 0x20 DUP4 ADD DUP5 DUP7 PUSH2 0x1937 JUMP JUMPDEST PUSH1 0x40 DUP2 MSTORE PUSH1 0x0 PUSH2 0x1988 PUSH1 0x40 DUP4 ADD DUP6 DUP8 PUSH2 0x1937 JUMP JUMPDEST SWAP1 POP DUP3 PUSH1 0x20 DUP4 ADD MSTORE SWAP5 SWAP4 POP POP POP POP JUMP JUMPDEST PUSH17 0x2432B6363790333937B69031B430B4B71 PUSH1 0x7D SHL DUP2 MSTORE PUSH1 0x0 DUP3 MLOAD PUSH2 0x19C4 DUP2 PUSH1 0x11 DUP6 ADD PUSH1 0x20 DUP8 ADD PUSH2 0x151E JUMP JUMPDEST PUSH1 0x21 PUSH1 0xF8 SHL PUSH1 0x11 SWAP4 SWAP1 SWAP2 ADD SWAP3 DUP4 ADD MSTORE POP PUSH1 0x12 ADD SWAP2 SWAP1 POP JUMP JUMPDEST PUSH4 0xFFFFFFFF DUP5 AND DUP2 MSTORE PUSH1 0x60 PUSH1 0x20 DUP3 ADD MSTORE PUSH1 0x0 PUSH2 0x19FB PUSH1 0x60 DUP4 ADD DUP6 PUSH2 0x1542 JUMP JUMPDEST DUP3 DUP2 SUB PUSH1 0x40 DUP5 ADD MSTORE PUSH2 0x1A0D DUP2 DUP6 PUSH2 0x1542 JUMP JUMPDEST SWAP7 SWAP6 POP POP POP POP POP POP JUMP JUMPDEST PUSH4 0x4E487B71 PUSH1 0xE0 SHL PUSH1 0x0 MSTORE PUSH1 0x41 PUSH1 0x4 MSTORE PUSH1 0x24 PUSH1 0x0 REVERT JUMPDEST PUSH1 0x40 MLOAD PUSH1 0x60 DUP2 ADD PUSH1 0x1 PUSH1 0x1 PUSH1 0x40 SHL SUB DUP2 GT DUP3 DUP3 LT OR ISZERO PUSH2 0x1A4F JUMPI PUSH2 0x1A4F PUSH2 0x1A17 JUMP JUMPDEST PUSH1 0x40 MSTORE SWAP1 JUMP JUMPDEST PUSH1 0x40 MLOAD PUSH1 0x1F DUP3 ADD PUSH1 0x1F NOT AND DUP2 ADD PUSH1 0x1 PUSH1 0x1 PUSH1 0x40 SHL SUB DUP2 GT DUP3 DUP3 LT OR ISZERO PUSH2 0x1A7D JUMPI PUSH2 0x1A7D PUSH2 0x1A17 JUMP JUMPDEST PUSH1 0x40 MSTORE SWAP2 SWAP1 POP JUMP JUMPDEST PUSH1 0x0 PUSH1 0x1 PUSH1 0x1 PUSH1 0x40 SHL SUB DUP4 GT ISZERO PUSH2 0x1A9E JUMPI PUSH2 0x1A9E PUSH2 0x1A17 JUMP JUMPDEST PUSH2 0x1AB1 PUSH1 0x1F DUP5 ADD PUSH1 0x1F NOT AND PUSH1 0x20 ADD PUSH2 0x1A55 JUMP JUMPDEST SWAP1 POP DUP3 DUP2 MSTORE DUP4 DUP4 DUP4 ADD GT ISZERO PUSH2 0x1AC5 JUMPI PUSH1 0x0 DUP1 REVERT JUMPDEST DUP3 DUP3 PUSH1 0x20 DUP4 ADD CALLDATACOPY PUSH1 0x0 PUSH1 0x20 DUP5 DUP4 ADD ADD MSTORE SWAP4 SWAP3 POP POP POP JUMP JUMPDEST PUSH1 0x0 PUSH1 0x1 PUSH1 0x1 PUSH1 0x40 SHL SUB DUP1 DUP5 GT ISZERO PUSH2 0x1AF6 JUMPI PUSH2 0x1AF6 PUSH2 0x1A17 JUMP JUMPDEST DUP4 PUSH1 0x5 SHL PUSH1 0x20 PUSH2 0x1B07 DUP2 DUP4 ADD PUSH2 0x1A55 JUMP JUMPDEST DUP7 DUP2 MSTORE SWAP2 DUP6 ADD SWAP2 DUP2 DUP2 ADD SWAP1 CALLDATASIZE DUP5 GT ISZERO PUSH2 0x1B1F JUMPI PUSH1 0x0 DUP1 REVERT JUMPDEST DUP7 JUMPDEST DUP5 DUP2 LT ISZERO PUSH2 0x1BB8 JUMPI DUP1 CALLDATALOAD DUP7 DUP2 GT ISZERO PUSH2 0x1B39 JUMPI PUSH1 0x0 DUP1 DUP2 REVERT JUMPDEST DUP9 ADD PUSH1 0x60 CALLDATASIZE DUP3 SWAP1 SUB SLT ISZERO PUSH2 0x1B4D JUMPI PUSH1 0x0 DUP1 DUP2 REVERT JUMPDEST PUSH2 0x1B55 PUSH2 0x1A2D JUMP JUMPDEST PUSH2 0x1B5E DUP3 PUSH2 0x1588 JUMP JUMPDEST DUP2 MSTORE PUSH2 0x1B6B DUP7 DUP4 ADD PUSH2 0x1666 JUMP JUMPDEST DUP7 DUP3 ADD MSTORE PUSH1 0x40 DUP1 DUP4 ADD CALLDATALOAD DUP10 DUP2 GT ISZERO PUSH2 0x1B83 JUMPI PUSH1 0x0 DUP1 DUP2 REVERT JUMPDEST SWAP3 SWAP1 SWAP3 ADD SWAP2 CALLDATASIZE PUSH1 0x1F DUP5 ADD SLT PUSH2 0x1B98 JUMPI PUSH1 0x0 DUP1 DUP2 REVERT JUMPDEST PUSH2 0x1BA6 CALLDATASIZE DUP5 CALLDATALOAD DUP10 DUP7 ADD PUSH2 0x1A85 JUMP JUMPDEST SWAP1 DUP3 ADD MSTORE DUP5 MSTORE POP SWAP2 DUP4 ADD SWAP2 DUP4 ADD PUSH2 0x1B21 JUMP JUMPDEST POP SWAP8 SWAP7 POP POP POP POP POP POP POP JUMP JUMPDEST PUSH1 0x0 DUP1 DUP6 DUP6 GT ISZERO PUSH2 0x1BD4 JUMPI PUSH1 0x0 DUP1 REVERT JUMPDEST DUP4 DUP7 GT ISZERO PUSH2 0x1BE1 JUMPI PUSH1 0x0 DUP1 REVERT JUMPDEST POP POP DUP3 ADD SWAP4 SWAP2 SWAP1 SWAP3 SUB SWAP2 POP JUMP JUMPDEST PUSH1 0x0 DUP5 MLOAD PUSH2 0x1C00 DUP2 DUP5 PUSH1 0x20 DUP10 ADD PUSH2 0x151E JUMP JUMPDEST DUP3 ADD DUP4 DUP6 DUP3 CALLDATACOPY PUSH1 0x0 SWAP4 ADD SWAP3 DUP4 MSTORE POP SWAP1 SWAP4 SWAP3 POP POP POP JUMP JUMPDEST PUSH1 0x0 PUSH1 0x20 DUP3 DUP5 SUB SLT ISZERO PUSH2 0x1C28 JUMPI PUSH1 0x0 DUP1 REVERT JUMPDEST DUP2 CALLDATALOAD PUSH1 0x1 PUSH1 0x1 PUSH1 0x40 SHL SUB DUP2 GT ISZERO PUSH2 0x1C3E JUMPI PUSH1 0x0 DUP1 REVERT JUMPDEST DUP3 ADD PUSH1 0x1F DUP2 ADD DUP5 SGT PUSH2 0x1C4F JUMPI PUSH1 0x0 DUP1 REVERT JUMPDEST PUSH2 0x76F DUP5 DUP3 CALLDATALOAD PUSH1 0x20 DUP5 ADD PUSH2 0x1A85 JUMP JUMPDEST PUSH1 0x1F DUP3 GT ISZERO PUSH2 0x1CAA JUMPI PUSH1 0x0 DUP2 PUSH1 0x0 MSTORE PUSH1 0x20 PUSH1 0x0 KECCAK256 PUSH1 0x1F DUP6 ADD PUSH1 0x5 SHR DUP2 ADD PUSH1 0x20 DUP7 LT ISZERO PUSH2 0x1C87 JUMPI POP DUP1 JUMPDEST PUSH1 0x1F DUP6 ADD PUSH1 0x5 SHR DUP3 ADD SWAP2 POP JUMPDEST DUP2 DUP2 LT ISZERO PUSH2 0x1CA6 JUMPI DUP3 DUP2 SSTORE PUSH1 0x1 ADD PUSH2 0x1C93 JUMP JUMPDEST POP POP POP JUMPDEST POP POP POP JUMP JUMPDEST DUP2 MLOAD PUSH1 0x1 PUSH1 0x1 PUSH1 0x40 SHL SUB DUP2 GT ISZERO PUSH2 0x1CC8 JUMPI PUSH2 0x1CC8 PUSH2 0x1A17 JUMP JUMPDEST PUSH2 0x1CDC DUP2 PUSH2 0x1CD6 DUP5 SLOAD PUSH2 0x18D4 JUMP JUMPDEST DUP5 PUSH2 0x1C5E JUMP JUMPDEST PUSH1 0x20 DUP1 PUSH1 0x1F DUP4 GT PUSH1 0x1 DUP2 EQ PUSH2 0x1D11 JUMPI PUSH1 0x0 DUP5 ISZERO PUSH2 0x1CF9 JUMPI POP DUP6 DUP4 ADD MLOAD JUMPDEST PUSH1 0x0 NOT PUSH1 0x3 DUP7 SWAP1 SHL SHR NOT AND PUSH1 0x1 DUP6 SWAP1 SHL OR DUP6 SSTORE PUSH2 0x1CA6 JUMP JUMPDEST PUSH1 0x0 DUP6 DUP2 MSTORE PUSH1 0x20 DUP2 KECCAK256 PUSH1 0x1F NOT DUP7 AND SWAP2 JUMPDEST DUP3 DUP2 LT ISZERO PUSH2 0x1D40 JUMPI DUP9 DUP7 ADD MLOAD DUP3 SSTORE SWAP5 DUP5 ADD SWAP5 PUSH1 0x1 SWAP1 SWAP2 ADD SWAP1 DUP5 ADD PUSH2 0x1D21 JUMP JUMPDEST POP DUP6 DUP3 LT ISZERO PUSH2 0x1D5E JUMPI DUP8 DUP6 ADD MLOAD PUSH1 0x0 NOT PUSH1 0x3 DUP9 SWAP1 SHL PUSH1 0xF8 AND SHR NOT AND DUP2 SSTORE JUMPDEST POP POP POP POP POP PUSH1 0x1 SWAP1 DUP2 SHL ADD SWAP1 SSTORE POP JUMP JUMPDEST PUSH1 0x40 DUP2 MSTORE PUSH1 0x0 PUSH2 0x1D81 PUSH1 0x40 DUP4 ADD DUP6 PUSH2 0x1542 JUMP JUMPDEST SWAP1 POP DUP3 PUSH1 0x20 DUP4 ADD MSTORE SWAP4 SWAP3 POP POP POP JUMP JUMPDEST PUSH1 0x40 DUP2 MSTORE PUSH4 0xFFFFFFFF DUP4 MLOAD AND PUSH1 0x40 DUP3 ADD MSTORE PUSH1 0x20 DUP4 ADD MLOAD PUSH1 0x60 DUP3 ADD MSTORE PUSH1 0x0 PUSH1 0x40 DUP5 ADD MLOAD PUSH1 0xA0 PUSH1 0x80 DUP5 ADD MSTORE PUSH2 0x1DC6 PUSH1 0xE0 DUP5 ADD DUP3 PUSH2 0x1542 JUMP JUMPDEST SWAP1 POP PUSH1 0x60 DUP6 ADD MLOAD PUSH1 0x3F NOT DUP5 DUP4 SUB ADD PUSH1 0xA0 DUP6 ADD MSTORE PUSH2 0x1DE3 DUP3 DUP3 PUSH2 0x1542 JUMP JUMPDEST PUSH1 0x80 SWAP7 SWAP1 SWAP7 ADD MLOAD ISZERO ISZERO PUSH1 0xC0 DUP6 ADD MSTORE POP POP POP PUSH1 0x1 PUSH1 0x1 PUSH1 0xA0 SHL SUB SWAP2 SWAP1 SWAP2 AND PUSH1 0x20 SWAP1 SWAP2 ADD MSTORE SWAP1 JUMP JUMPDEST PUSH1 0x0 PUSH1 0x40 DUP3 DUP5 SUB SLT ISZERO PUSH2 0x1E1B JUMPI PUSH1 0x0 DUP1 REVERT JUMPDEST PUSH1 0x40 MLOAD PUSH1 0x40 DUP2 ADD DUP2 DUP2 LT PUSH1 0x1 PUSH1 0x1 PUSH1 0x40 SHL SUB DUP3 GT OR ISZERO PUSH2 0x1E3D JUMPI PUSH2 0x1E3D PUSH2 0x1A17 JUMP JUMPDEST PUSH1 0x40 MSTORE DUP3 MLOAD DUP2 MSTORE PUSH1 0x20 SWAP3 DUP4 ADD MLOAD SWAP3 DUP2 ADD SWAP3 SWAP1 SWAP3 MSTORE POP SWAP2 SWAP1 POP JUMP JUMPDEST PUSH1 0x0 PUSH1 0x80 DUP3 DUP5 SUB SLT ISZERO PUSH2 0x1E69 JUMPI PUSH1 0x0 DUP1 REVERT JUMPDEST PUSH2 0x1E71 PUSH2 0x1A2D JUMP JUMPDEST DUP3 MLOAD DUP2 MSTORE PUSH1 0x20 DUP4 ADD MLOAD PUSH1 0x1 PUSH1 0x1 PUSH1 0x40 SHL SUB DUP2 AND DUP2 EQ PUSH2 0x1E8F JUMPI PUSH1 0x0 DUP1 REVERT JUMPDEST PUSH1 0x20 DUP3 ADD MSTORE PUSH2 0x1EA1 DUP5 PUSH1 0x40 DUP6 ADD PUSH2 0x1E09 JUMP JUMPDEST PUSH1 0x40 DUP3 ADD MSTORE SWAP4 SWAP3 POP POP POP JUMP JUMPDEST PUSH1 0x0 DUP3 PUSH2 0x1ECA JUMPI PUSH4 0x4E487B71 PUSH1 0xE0 SHL PUSH1 0x0 MSTORE PUSH1 0x12 PUSH1 0x4 MSTORE PUSH1 0x24 PUSH1 0x0 REVERT JUMPDEST POP DIV SWAP1 JUMP JUMPDEST DUP2 DUP2 SUB DUP2 DUP2 GT ISZERO PUSH2 0x75C JUMPI PUSH2 0x75C PUSH2 0x1908 JUMP JUMPDEST DUP1 DUP3 MUL DUP2 ISZERO DUP3 DUP3 DIV DUP5 EQ OR PUSH2 0x75C JUMPI PUSH2 0x75C PUSH2 0x1908 JUMP JUMPDEST PUSH1 0xFF DUP2 DUP2 AND DUP4 DUP3 AND ADD SWAP1 DUP2 GT ISZERO PUSH2 0x75C JUMPI PUSH2 0x75C PUSH2 0x1908 JUMP JUMPDEST PUSH4 0x4E487B71 PUSH1 0xE0 SHL PUSH1 0x0 MSTORE PUSH1 0x32 PUSH1 0x4 MSTORE PUSH1 0x24 PUSH1 0x0 REVERT JUMPDEST PUSH1 0x0 PUSH1 0x20 DUP1 DUP4 ADD DUP2 DUP5 MSTORE DUP1 DUP6 MLOAD DUP1 DUP4 MSTORE PUSH1 0x40 SWAP3 POP PUSH1 0x40 DUP7 ADD SWAP2 POP PUSH1 0x40 DUP2 PUSH1 0x5 SHL DUP8 ADD ADD DUP5 DUP9 ADD PUSH1 0x0 JUMPDEST DUP4 DUP2 LT ISZERO PUSH2 0x1FA5 JUMPI DUP9 DUP4 SUB PUSH1 0x3F NOT ADD DUP6 MSTORE DUP2 MLOAD DUP1 MLOAD PUSH4 0xFFFFFFFF AND DUP5 MSTORE DUP8 DUP2 ADD MLOAD PUSH2 0xFFFF AND DUP9 DUP6 ADD MSTORE DUP7 ADD MLOAD PUSH1 0x60 DUP8 DUP6 ADD DUP2 SWAP1 MSTORE PUSH2 0x1F91 DUP2 DUP7 ADD DUP4 PUSH2 0x1542 JUMP JUMPDEST SWAP7 DUP10 ADD SWAP7 SWAP5 POP POP POP SWAP1 DUP7 ADD SWAP1 PUSH1 0x1 ADD PUSH2 0x1F51 JUMP JUMPDEST POP SWAP1 SWAP9 SWAP8 POP POP POP POP POP POP POP POP JUMP JUMPDEST PUSH1 0x0 PUSH1 0x40 DUP3 DUP5 SUB SLT ISZERO PUSH2 0x1FC5 JUMPI PUSH1 0x0 DUP1 REVERT JUMPDEST PUSH2 0x1581 DUP4 DUP4 PUSH2 0x1E09 JUMP JUMPDEST PUSH1 0x0 PUSH1 0x20 DUP3 DUP5 SUB SLT ISZERO PUSH2 0x1FE1 JUMPI PUSH1 0x0 DUP1 REVERT JUMPDEST DUP2 MLOAD PUSH2 0x1581 DUP2 PUSH2 0x146A JUMP INVALID LOG2 PUSH5 0x6970667358 0x22 SLT KECCAK256 0xEB 0x4A PUSH8 0x9B3B1922A823630A 0xD 0xB1 SMOD DUP15 0xDC JUMPI MLOAD 0xB7 SELFDESTRUCT DELEGATECALL EXTCODECOPY 0xC6 JUMPDEST PUSH32 0x4254E40E62894A64736F6C634300081600330000000000000000000000000000 "},"gasEstimates":{"creation":{"codeDepositCost":"1645200","executionCost":"infinite","totalCost":"infinite"},"external":{"SEND()":"272","allowInitializePath((uint32,bytes32,uint64))":"infinite","combineOptions(uint32,uint16,bytes)":"infinite","endpoint()":"infinite","enforcedOptions(uint32,uint16)":"infinite","getMessagesFromChain(uint32)":"2536","getStats()":"infinite","isComposeMsgSender((uint32,bytes32,uint64),bytes,address)":"799","lastMessage()":"infinite","lzReceive((uint32,bytes32,uint64),bytes32,bytes,address,bytes)":"infinite","messagesFromChain(uint32)":"2596","messagesReceived()":"2362","messagesSent()":"2428","nextNonce(uint32,bytes32)":"426","oAppVersion()":"230","owner()":"2398","peers(uint32)":"2552","quoteSendString(uint32,string,bytes,bool)":"infinite","renounceOwnership()":"infinite","sendHello(uint32)":"infinite","sendString(uint32,string,bytes)":"infinite","setDelegate(address)":"infinite","setEnforcedOptions((uint32,uint16,bytes)[])":"infinite","setPeer(uint32,bytes32)":"26149","transferOwnership(address)":"infinite"},"internal":{"_lzReceive(struct Origin calldata,bytes32,bytes calldata,address,bytes calldata)":"infinite","uint2str(uint256)":"infinite"}},"methodIdentifiers":{"SEND()":"1f5e1334","allowInitializePath((uint32,bytes32,uint64))":"ff7bd03d","combineOptions(uint32,uint16,bytes)":"bc70b354","endpoint()":"5e280f11","enforcedOptions(uint32,uint16)":"5535d461","getMessagesFromChain(uint32)":"3d448d27","getStats()":"c59d4847","isComposeMsgSender((uint32,bytes32,uint64),bytes,address)":"82413eac","lastMessage()":"32970710","lzReceive((uint32,bytes32,uint64),bytes32,bytes,address,bytes)":"13137d65","messagesFromChain(uint32)":"ade81242","messagesReceived()":"5be63c71","messagesSent()":"752009d9","nextNonce(uint32,bytes32)":"7d25a05e","oAppVersion()":"17442b70","owner()":"8da5cb5b","peers(uint32)":"bb0b6a53","quoteSendString(uint32,string,bytes,bool)":"d3b4866e","renounceOwnership()":"715018a6","sendHello(uint32)":"aee18829","sendString(uint32,string,bytes)":"36ef9620","setDelegate(address)":"ca5eb5e1","setEnforcedOptions((uint32,uint16,bytes)[])":"b98bd070","setPeer(uint32,bytes32)":"3400288b","transferOwnership(address)":"f2fde38b"}},"storageLayout":{"storage":[{"astId":1533,"contract":"contracts/MyOApp.sol:MyOApp","label":"_owner","offset":0,"slot":"0","type":"t_address"},{"astId":785,"contract":"contracts/MyOApp.sol:MyOApp","label":"peers","offset":0,"slot":"1","type":"t_mapping(t_uint32,t_bytes32)"},{"astId":1381,"contract":"contracts/MyOApp.sol:MyOApp","label":"enforcedOptions","offset":0,"slot":"2","type":"t_mapping(t_uint32,t_mapping(t_uint16,t_bytes_storage))"},{"astId":2364,"contract":"contracts/MyOApp.sol:MyOApp","label":"lastMessage","offset":0,"slot":"3","type":"t_string_storage"},{"astId":2367,"contract":"contracts/MyOApp.sol:MyOApp","label":"messagesSent","offset":0,"slot":"4","type":"t_uint256"},{"astId":2370,"contract":"contracts/MyOApp.sol:MyOApp","label":"messagesReceived","offset":0,"slot":"5","type":"t_uint256"},{"astId":2375,"contract":"contracts/MyOApp.sol:MyOApp","label":"messagesFromChain","offset":0,"slot":"6","type":"t_mapping(t_uint32,t_uint256)"}],"types":{"t_address":{"encoding":"inplace","label":"address","numberOfBytes":"20"},"t_bytes32":{"encoding":"inplace","label":"bytes32","numberOfBytes":"32"},"t_bytes_storage":{"encoding":"bytes","label":"bytes","numberOfBytes":"32"},"t_mapping(t_uint16,t_bytes_storage)":{"encoding":"mapping","key":"t_uint16","label":"mapping(uint16 => bytes)","numberOfBytes":"32","value":"t_bytes_storage"},"t_mapping(t_uint32,t_bytes32)":{"encoding":"mapping","key":"t_uint32","label":"mapping(uint32 => bytes32)","numberOfBytes":"32","value":"t_bytes32"},"t_mapping(t_uint32,t_mapping(t_uint16,t_bytes_storage))":{"encoding":"mapping","key":"t_uint32","label":"mapping(uint32 => mapping(uint16 => bytes))","numberOfBytes":"32","value":"t_mapping(t_uint16,t_bytes_storage)"},"t_mapping(t_uint32,t_uint256)":{"encoding":"mapping","key":"t_uint32","label":"mapping(uint32 => uint256)","numberOfBytes":"32","value":"t_uint256"},"t_string_storage":{"encoding":"bytes","label":"string","numberOfBytes":"32"},"t_uint16":{"encoding":"inplace","label":"uint16","numberOfBytes":"2"},"t_uint256":{"encoding":"inplace","label":"uint256","numberOfBytes":"32"},"t_uint32":{"encoding":"inplace","label":"uint32","numberOfBytes":"4"}}},"userdoc":{"events":{"MessageReceived(uint32,string,uint256)":{"notice":"Emitted when a message is received from another chain"},"MessageSent(uint32,string,uint256)":{"notice":"Emitted when a message is sent to another chain"}},"kind":"user","methods":{"SEND()":{"notice":"Msg type for sending a string, for use in OAppOptionsType3 as an enforced option"},"allowInitializePath((uint32,bytes32,uint64))":{"notice":"Checks if the path initialization is allowed based on the provided origin."},"combineOptions(uint32,uint16,bytes)":{"notice":"Combines options for a given endpoint and message type."},"constructor":{"notice":"Initialize with Endpoint V2 and owner address"},"endpoint()":{"notice":"Retrieves the LayerZero endpoint associated with the OApp."},"getMessagesFromChain(uint32)":{"notice":"Get the total number of messages received from a specific chain"},"getStats()":{"notice":"Get contract statistics"},"isComposeMsgSender((uint32,bytes32,uint64),bytes,address)":{"notice":"Indicates whether an address is an approved composeMsg sender to the Endpoint."},"lastMessage()":{"notice":"Last string received from any remote chain"},"messagesFromChain(uint32)":{"notice":"Mapping to track messages received from each chain"},"messagesReceived()":{"notice":"Counter for messages received on this chain"},"messagesSent()":{"notice":"Counter for messages sent from this chain"},"nextNonce(uint32,bytes32)":{"notice":"Retrieves the next nonce for a given source endpoint and sender address."},"oAppVersion()":{"notice":"Retrieves the OApp version information."},"peers(uint32)":{"notice":"Retrieves the peer (OApp) associated with a corresponding endpoint."},"quoteSendString(uint32,string,bytes,bool)":{"notice":"Quotes the gas needed to pay for the full omnichain transaction in native gas or ZRO token."},"sendHello(uint32)":{"notice":"Convenience function to send a simple \"Hello\" message"},"sendString(uint32,string,bytes)":{"notice":"Send a string to a remote OApp on another chain"},"setDelegate(address)":{"notice":"Sets the delegate address for the OApp."},"setPeer(uint32,bytes32)":{"notice":"Sets the peer address (OApp instance) for a corresponding endpoint."}},"notice":"This contract demonstrates basic cross-chain messaging using LayerZero V2","version":1}}}}