{
  "_format": "hh-sol-artifact-1",
  "contractName": "MyOApp",
  "sourceName": "contracts/MyOApp.sol",
  "abi": [
    {
      "inputs": [
        {
          "internalType": "address",
          "name": "_endpoint",
          "type": "address"
        },
        {
          "internalType": "address",
          "name": "_owner",
          "type": "address"
        }
      ],
      "stateMutability": "nonpayable",
      "type": "constructor"
    },
    {
      "inputs": [],
      "name": "InvalidDelegate",
      "type": "error"
    },
    {
      "inputs": [],
      "name": "InvalidEndpointCall",
      "type": "error"
    },
    {
      "inputs": [
        {
          "internalType": "bytes",
          "name": "options",
          "type": "bytes"
        }
      ],
      "name": "InvalidOptions",
      "type": "error"
    },
    {
      "inputs": [],
      "name": "LzTokenUnavailable",
      "type": "error"
    },
    {
      "inputs": [
        {
          "internalType": "uint32",
          "name": "eid",
          "type": "uint32"
        }
      ],
      "name": "NoPeer",
      "type": "error"
    },
    {
      "inputs": [
        {
          "internalType": "uint256",
          "name": "msgValue",
          "type": "uint256"
        }
      ],
      "name": "NotEnoughNative",
      "type": "error"
    },
    {
      "inputs": [
        {
          "internalType": "address",
          "name": "addr",
          "type": "address"
        }
      ],
      "name": "OnlyEndpoint",
      "type": "error"
    },
    {
      "inputs": [
        {
          "internalType": "uint32",
          "name": "eid",
          "type": "uint32"
        },
        {
          "internalType": "bytes32",
          "name": "sender",
          "type": "bytes32"
        }
      ],
      "name": "OnlyPeer",
      "type": "error"
    },
    {
      "inputs": [
        {
          "internalType": "address",
          "name": "owner",
          "type": "address"
        }
      ],
      "name": "OwnableInvalidOwner",
      "type": "error"
    },
    {
      "inputs": [
        {
          "internalType": "address",
          "name": "account",
          "type": "address"
        }
      ],
      "name": "OwnableUnauthorizedAccount",
      "type": "error"
    },
    {
      "inputs": [
        {
          "internalType": "address",
          "name": "token",
          "type": "address"
        }
      ],
      "name": "SafeERC20FailedOperation",
      "type": "error"
    },
    {
      "anonymous": false,
      "inputs": [
        {
          "components": [
            {
              "internalType": "uint32",
              "name": "eid",
              "type": "uint32"
            },
            {
              "internalType": "uint16",
              "name": "msgType",
              "type": "uint16"
            },
            {
              "internalType": "bytes",
              "name": "options",
              "type": "bytes"
            }
          ],
          "indexed": false,
          "internalType": "struct EnforcedOptionParam[]",
          "name": "_enforcedOptions",
          "type": "tuple[]"
        }
      ],
      "name": "EnforcedOptionSet",
      "type": "event"
    },
    {
      "anonymous": false,
      "inputs": [
        {
          "indexed": true,
          "internalType": "uint32",
          "name": "srcEid",
          "type": "uint32"
        },
        {
          "indexed": false,
          "internalType": "string",
          "name": "message",
          "type": "string"
        },
        {
          "indexed": false,
          "internalType": "uint256",
          "name": "totalReceived",
          "type": "uint256"
        }
      ],
      "name": "MessageReceived",
      "type": "event"
    },
    {
      "anonymous": false,
      "inputs": [
        {
          "indexed": true,
          "internalType": "uint32",
          "name": "dstEid",
          "type": "uint32"
        },
        {
          "indexed": false,
          "internalType": "string",
          "name": "message",
          "type": "string"
        },
        {
          "indexed": false,
          "internalType": "uint256",
          "name": "messageId",
          "type": "uint256"
        }
      ],
      "name": "MessageSent",
      "type": "event"
    },
    {
      "anonymous": false,
      "inputs": [
        {
          "indexed": true,
          "internalType": "address",
          "name": "previousOwner",
          "type": "address"
        },
        {
          "indexed": true,
          "internalType": "address",
          "name": "newOwner",
          "type": "address"
        }
      ],
      "name": "OwnershipTransferred",
      "type": "event"
    },
    {
      "anonymous": false,
      "inputs": [
        {
          "indexed": false,
          "internalType": "uint32",
          "name": "eid",
          "type": "uint32"
        },
        {
          "indexed": false,
          "internalType": "bytes32",
          "name": "peer",
          "type": "bytes32"
        }
      ],
      "name": "PeerSet",
      "type": "event"
    },
    {
      "inputs": [],
      "name": "SEND",
      "outputs": [
        {
          "internalType": "uint16",
          "name": "",
          "type": "uint16"
        }
      ],
      "stateMutability": "view",
      "type": "function"
    },
    {
      "inputs": [
        {
          "components": [
            {
              "internalType": "uint32",
              "name": "srcEid",
              "type": "uint32"
            },
            {
              "internalType": "bytes32",
              "name": "sender",
              "type": "bytes32"
            },
            {
              "internalType": "uint64",
              "name": "nonce",
              "type": "uint64"
            }
          ],
          "internalType": "struct Origin",
          "name": "origin",
          "type": "tuple"
        }
      ],
      "name": "allowInitializePath",
      "outputs": [
        {
          "internalType": "bool",
          "name": "",
          "type": "bool"
        }
      ],
      "stateMutability": "view",
      "type": "function"
    },
    {
      "inputs": [
        {
          "internalType": "uint32",
          "name": "_eid",
          "type": "uint32"
        },
        {
          "internalType": "uint16",
          "name": "_msgType",
          "type": "uint16"
        },
        {
          "internalType": "bytes",
          "name": "_extraOptions",
          "type": "bytes"
        }
      ],
      "name": "combineOptions",
      "outputs": [
        {
          "internalType": "bytes",
          "name": "",
          "type": "bytes"
        }
      ],
      "stateMutability": "view",
      "type": "function"
    },
    {
      "inputs": [],
      "name": "endpoint",
      "outputs": [
        {
          "internalType": "contract ILayerZeroEndpointV2",
          "name": "",
          "type": "address"
        }
      ],
      "stateMutability": "view",
      "type": "function"
    },
    {
      "inputs": [
        {
          "internalType": "uint32",
          "name": "eid",
          "type": "uint32"
        },
        {
          "internalType": "uint16",
          "name": "msgType",
          "type": "uint16"
        }
      ],
      "name": "enforcedOptions",
      "outputs": [
        {
          "internalType": "bytes",
          "name": "enforcedOption",
          "type": "bytes"
        }
      ],
      "stateMutability": "view",
      "type": "function"
    },
    {
      "inputs": [
        {
          "internalType": "uint32",
          "name": "_srcEid",
          "type": "uint32"
        }
      ],
      "name": "getMessagesFromChain",
      "outputs": [
        {
          "internalType": "uint256",
          "name": "",
          "type": "uint256"
        }
      ],
      "stateMutability": "view",
      "type": "function"
    },
    {
      "inputs": [],
      "name": "getStats",
      "outputs": [
        {
          "internalType": "uint256",
          "name": "sent",
          "type": "uint256"
        },
        {
          "internalType": "uint256",
          "name": "received",
          "type": "uint256"
        },
        {
          "internalType": "string",
          "name": "lastMsg",
          "type": "string"
        }
      ],
      "stateMutability": "view",
      "type": "function"
    },
    {
      "inputs": [
        {
          "components": [
            {
              "internalType": "uint32",
              "name": "srcEid",
              "type": "uint32"
            },
            {
              "internalType": "bytes32",
              "name": "sender",
              "type": "bytes32"
            },
            {
              "internalType": "uint64",
              "name": "nonce",
              "type": "uint64"
            }
          ],
          "internalType": "struct Origin",
          "name": "",
          "type": "tuple"
        },
        {
          "internalType": "bytes",
          "name": "",
          "type": "bytes"
        },
        {
          "internalType": "address",
          "name": "_sender",
          "type": "address"
        }
      ],
      "name": "isComposeMsgSender",
      "outputs": [
        {
          "internalType": "bool",
          "name": "",
          "type": "bool"
        }
      ],
      "stateMutability": "view",
      "type": "function"
    },
    {
      "inputs": [],
      "name": "lastMessage",
      "outputs": [
        {
          "internalType": "string",
          "name": "",
          "type": "string"
        }
      ],
      "stateMutability": "view",
      "type": "function"
    },
    {
      "inputs": [
        {
          "components": [
            {
              "internalType": "uint32",
              "name": "srcEid",
              "type": "uint32"
            },
            {
              "internalType": "bytes32",
              "name": "sender",
              "type": "bytes32"
            },
            {
              "internalType": "uint64",
              "name": "nonce",
              "type": "uint64"
            }
          ],
          "internalType": "struct Origin",
          "name": "_origin",
          "type": "tuple"
        },
        {
          "internalType": "bytes32",
          "name": "_guid",
          "type": "bytes32"
        },
        {
          "internalType": "bytes",
          "name": "_message",
          "type": "bytes"
        },
        {
          "internalType": "address",
          "name": "_executor",
          "type": "address"
        },
        {
          "internalType": "bytes",
          "name": "_extraData",
          "type": "bytes"
        }
      ],
      "name": "lzReceive",
      "outputs": [],
      "stateMutability": "payable",
      "type": "function"
    },
    {
      "inputs": [
        {
          "internalType": "uint32",
          "name": "",
          "type": "uint32"
        }
      ],
      "name": "messagesFromChain",
      "outputs": [
        {
          "internalType": "uint256",
          "name": "",
          "type": "uint256"
        }
      ],
      "stateMutability": "view",
      "type": "function"
    },
    {
      "inputs": [],
      "name": "messagesReceived",
      "outputs": [
        {
          "internalType": "uint256",
          "name": "",
          "type": "uint256"
        }
      ],
      "stateMutability": "view",
      "type": "function"
    },
    {
      "inputs": [],
      "name": "messagesSent",
      "outputs": [
        {
          "internalType": "uint256",
          "name": "",
          "type": "uint256"
        }
      ],
      "stateMutability": "view",
      "type": "function"
    },
    {
      "inputs": [
        {
          "internalType": "uint32",
          "name": "",
          "type": "uint32"
        },
        {
          "internalType": "bytes32",
          "name": "",
          "type": "bytes32"
        }
      ],
      "name": "nextNonce",
      "outputs": [
        {
          "internalType": "uint64",
          "name": "nonce",
          "type": "uint64"
        }
      ],
      "stateMutability": "view",
      "type": "function"
    },
    {
      "inputs": [],
      "name": "oAppVersion",
      "outputs": [
        {
          "internalType": "uint64",
          "name": "senderVersion",
          "type": "uint64"
        },
        {
          "internalType": "uint64",
          "name": "receiverVersion",
          "type": "uint64"
        }
      ],
      "stateMutability": "pure",
      "type": "function"
    },
    {
      "inputs": [],
      "name": "owner",
      "outputs": [
        {
          "internalType": "address",
          "name": "",
          "type": "address"
        }
      ],
      "stateMutability": "view",
      "type": "function"
    },
    {
      "inputs": [
        {
          "internalType": "uint32",
          "name": "eid",
          "type": "uint32"
        }
      ],
      "name": "peers",
      "outputs": [
        {
          "internalType": "bytes32",
          "name": "peer",
          "type": "bytes32"
        }
      ],
      "stateMutability": "view",
      "type": "function"
    },
    {
      "inputs": [
        {
          "internalType": "uint32",
          "name": "_dstEid",
          "type": "uint32"
        },
        {
          "internalType": "string",
          "name": "_string",
          "type": "string"
        },
        {
          "internalType": "bytes",
          "name": "_options",
          "type": "bytes"
        },
        {
          "internalType": "bool",
          "name": "_payInLzToken",
          "type": "bool"
        }
      ],
      "name": "quoteSendString",
      "outputs": [
        {
          "components": [
            {
              "internalType": "uint256",
              "name": "nativeFee",
              "type": "uint256"
            },
            {
              "internalType": "uint256",
              "name": "lzTokenFee",
              "type": "uint256"
            }
          ],
          "internalType": "struct MessagingFee",
          "name": "fee",
          "type": "tuple"
        }
      ],
      "stateMutability": "view",
      "type": "function"
    },
    {
      "inputs": [],
      "name": "renounceOwnership",
      "outputs": [],
      "stateMutability": "nonpayable",
      "type": "function"
    },
    {
      "inputs": [
        {
          "internalType": "uint32",
          "name": "_dstEid",
          "type": "uint32"
        }
      ],
      "name": "sendHello",
      "outputs": [],
      "stateMutability": "payable",
      "type": "function"
    },
    {
      "inputs": [
        {
          "internalType": "uint32",
          "name": "_dstEid",
          "type": "uint32"
        },
        {
          "internalType": "string",
          "name": "_string",
          "type": "string"
        },
        {
          "internalType": "bytes",
          "name": "_options",
          "type": "bytes"
        }
      ],
      "name": "sendString",
      "outputs": [],
      "stateMutability": "payable",
      "type": "function"
    },
    {
      "inputs": [
        {
          "internalType": "address",
          "name": "_delegate",
          "type": "address"
        }
      ],
      "name": "setDelegate",
      "outputs": [],
      "stateMutability": "nonpayable",
      "type": "function"
    },
    {
      "inputs": [
        {
          "components": [
            {
              "internalType": "uint32",
              "name": "eid",
              "type": "uint32"
            },
            {
              "internalType": "uint16",
              "name": "msgType",
              "type": "uint16"
            },
            {
              "internalType": "bytes",
              "name": "options",
              "type": "bytes"
            }
          ],
          "internalType": "struct EnforcedOptionParam[]",
          "name": "_enforcedOptions",
          "type": "tuple[]"
        }
      ],
      "name": "setEnforcedOptions",
      "outputs": [],
      "stateMutability": "nonpayable",
      "type": "function"
    },
    {
      "inputs": [
        {
          "internalType": "uint32",
          "name": "_eid",
          "type": "uint32"
        },
        {
          "internalType": "bytes32",
          "name": "_peer",
          "type": "bytes32"
        }
      ],
      "name": "setPeer",
      "outputs": [],
      "stateMutability": "nonpayable",
      "type": "function"
    },
    {
      "inputs": [
        {
          "internalType": "address",
          "name": "newOwner",
          "type": "address"
        }
      ],
      "name": "transferOwnership",
      "outputs": [],
      "stateMutability": "nonpayable",
      "type": "function"
    }
  ],
  "bytecode": "0x60a06040523480156200001157600080fd5b506040516200221c3803806200221c83398101604081905262000034916200017c565b81818181806001600160a01b0381166200006857604051631e4fbdf760e01b81526000600482015260240160405180910390fd5b62000073816200010f565b506001600160a01b038083166080528116620000a257604051632d618d8160e21b815260040160405180910390fd5b60805160405163ca5eb5e160e01b81526001600160a01b0383811660048301529091169063ca5eb5e190602401600060405180830381600087803b158015620000ea57600080fd5b505af1158015620000ff573d6000803e3d6000fd5b50505050505050505050620001b4565b600080546001600160a01b038381166001600160a01b0319831681178455604051919092169283917f8be0079c531659141344cd1fd0a4f28419497f9722a3daafe3b4186f6b6457e09190a35050565b80516001600160a01b03811681146200017757600080fd5b919050565b600080604083850312156200019057600080fd5b6200019b836200015f565b9150620001ab602084016200015f565b90509250929050565b608051612022620001fa600039600081816102ad0152818161050601528181610a9801528181610d80015281816111270152818161121e01526112d501526120226000f3fe6080604052600436106101665760003560e01c80637d25a05e116100d1578063bb0b6a531161008a578063ca5eb5e111610064578063ca5eb5e114610469578063d3b4866e14610489578063f2fde38b146104c4578063ff7bd03d146104e457600080fd5b8063bb0b6a53146103f8578063bc70b35414610425578063c59d48471461044557600080fd5b80637d25a05e1461031257806382413eac1461034a5780638da5cb5b1461037a578063ade8124214610398578063aee18829146103c5578063b98bd070146103d857600080fd5b80633d448d27116101235780633d448d27146102245780635535d461146102655780635be63c71146102855780635e280f111461029b578063715018a6146102e7578063752009d9146102fc57600080fd5b806313137d651461016b57806317442b70146101805780631f5e1334146101a757806332970710146101cf5780633400288b146101f157806336ef962014610211575b600080fd5b61017e61017936600461147f565b610504565b005b34801561018c57600080fd5b50604080516001815260026020820152015b60405180910390f35b3480156101b357600080fd5b506101bc600181565b60405161ffff909116815260200161019e565b3480156101db57600080fd5b506101e46105c4565b60405161019e919061156e565b3480156101fd57600080fd5b5061017e61020c3660046115a1565b610652565b61017e61021f3660046115cb565b610668565b34801561023057600080fd5b5061025761023f36600461164b565b63ffffffff1660009081526006602052604090205490565b60405190815260200161019e565b34801561027157600080fd5b506101e4610280366004611678565b610721565b34801561029157600080fd5b5061025760055481565b3480156102a757600080fd5b506102cf7f000000000000000000000000000000000000000000000000000000000000000081565b6040516001600160a01b03909116815260200161019e565b3480156102f357600080fd5b5061017e610745565b34801561030857600080fd5b5061025760045481565b34801561031e57600080fd5b5061033261032d3660046115a1565b610759565b6040516001600160401b03909116815260200161019e565b34801561035657600080fd5b5061036a6103653660046116ab565b610762565b604051901515815260200161019e565b34801561038657600080fd5b506000546001600160a01b03166102cf565b3480156103a457600080fd5b506102576103b336600461164b565b60066020526000908152604090205481565b61017e6103d336600461164b565b610777565b3480156103e457600080fd5b5061017e6103f3366004611711565b61080b565b34801561040457600080fd5b5061025761041336600461164b565b60016020526000908152604090205481565b34801561043157600080fd5b506101e4610440366004611785565b610825565b34801561045157600080fd5b5061045a6109cd565b60405161019e939291906117e5565b34801561047557600080fd5b5061017e610484366004611804565b610a71565b34801561049557600080fd5b506104a96104a4366004611821565b610af7565b6040805182518152602092830151928101929092520161019e565b3480156104d057600080fd5b5061017e6104df366004611804565b610b55565b3480156104f057600080fd5b5061036a6104ff3660046118b8565b610b93565b7f00000000000000000000000000000000000000000000000000000000000000006001600160a01b03163314610554576040516391ac5e4f60e01b81523360048201526024015b60405180910390fd5b6020870180359061056e90610569908a61164b565b610bc9565b146105ac57610580602088018861164b565b60405163309afaf360e21b815263ffffffff90911660048201526020880135602482015260440161054b565b6105bb87878787878787610c05565b50505050505050565b600380546105d1906118d4565b80601f01602080910402602001604051908101604052809291908181526020018280546105fd906118d4565b801561064a5780601f1061061f5761010080835404028352916020019161064a565b820191906000526020600020905b81548152906001019060200180831161062d57829003601f168201915b505050505081565b61065a610ccb565b6106648282610cf8565b5050565b600480549060006106788361191e565b90915550506004546040516000906106969087908790602001611960565b60405160208183030381529060405290506106d587826106b98a60018989610825565b6040518060400160405280348152602001600081525033610d4d565b508663ffffffff167f9cda5eaa5fc52c2511df38a1c52fa5346d169b42263506dc06e34e770df2dc3a87878560405161071093929190611974565b60405180910390a250505050505050565b6002602090815260009283526040808420909152908252902080546105d1906118d4565b61074d610ccb565b6107576000610e58565b565b60005b92915050565b6001600160a01b03811630145b949350505050565b600061078246610ea8565b6040516020016107929190611998565b60408051601f198184030181526020830182526000835290516301b77cb160e51b815290925030906336ef96209034906107d4908790879087906004016119dc565b6000604051808303818588803b1580156107ed57600080fd5b505af1158015610801573d6000803e3d6000fd5b5050505050505050565b610813610ccb565b6106646108208284611adc565b610fd3565b63ffffffff8416600090815260026020908152604080832061ffff87168452909152812080546060929190610859906118d4565b80601f0160208091040260200160405190810160405280929190818152602001828054610885906118d4565b80156108d25780601f106108a7576101008083540402835291602001916108d2565b820191906000526020600020905b8154815290600101906020018083116108b557829003601f168201915b5050505050905080516000036109225783838080601f01602080910402602001604051908101604052809392919081815260200183838082843760009201919091525092945061076f9350505050565b600083900361093257905061076f565b600283106109b05761097984848080601f0160208091040260200160405190810160405280939291908181526020018383808284376000920191909152506110e592505050565b806109878460028188611bc4565b60405160200161099993929190611bee565b60405160208183030381529060405291505061076f565b8383604051639a6d49cd60e01b815260040161054b929190611960565b600080606060045460055460038080546109e6906118d4565b80601f0160208091040260200160405190810160405280929190818152602001828054610a12906118d4565b8015610a5f5780601f10610a3457610100808354040283529160200191610a5f565b820191906000526020600020905b815481529060010190602001808311610a4257829003601f168201915b50505050509050925092509250909192565b610a79610ccb565b60405163ca5eb5e160e01b81526001600160a01b0382811660048301527f0000000000000000000000000000000000000000000000000000000000000000169063ca5eb5e190602401600060405180830381600087803b158015610adc57600080fd5b505af1158015610af0573d6000803e3d6000fd5b5050505050565b604080518082019091526000808252602082015260008686604051602001610b20929190611960565b6040516020818303038152906040529050610b498882610b438b60018a8a610825565b86611111565b98975050505050505050565b610b5d610ccb565b6001600160a01b038116610b8757604051631e4fbdf760e01b81526000600482015260240161054b565b610b9081610e58565b50565b6000602082018035906001908390610bab908661164b565b63ffffffff1681526020810191909152604001600020541492915050565b63ffffffff81166000908152600160205260408120548061075c5760405163f6ff4fb760e01b815263ffffffff8416600482015260240161054b565b6000610c1385870187611c16565b90506003610c218282611caf565b5060058054906000610c328361191e565b90915550600690506000610c4960208b018b61164b565b63ffffffff16815260208101919091526040016000908120805491610c6d8361191e565b90915550610c809050602089018961164b565b63ffffffff167f451f60fd933734ca5a268884123eb0d3f0c8b81395f69440755531998a80763d82600554604051610cb9929190611d6e565b60405180910390a25050505050505050565b6000546001600160a01b031633146107575760405163118cdaa760e01b815233600482015260240161054b565b63ffffffff8216600081815260016020908152604091829020849055815192835282018390527f238399d427b947898edb290f5ff0f9109849b1c3ba196a42e35f00c50a54b98b910160405180910390a15050565b610d556113c3565b6000610d6484600001516111f2565b602085015190915015610d7e57610d7e846020015161121a565b7f00000000000000000000000000000000000000000000000000000000000000006001600160a01b0316632637a450826040518060a001604052808b63ffffffff168152602001610dce8c610bc9565b81526020018a815260200189815260200160008960200151111515815250866040518463ffffffff1660e01b8152600401610e0a929190611d90565b60806040518083038185885af1158015610e28573d6000803e3d6000fd5b50505050506040513d601f19601f82011682018060405250810190610e4d9190611e57565b979650505050505050565b600080546001600160a01b038381166001600160a01b0319831681178455604051919092169283917f8be0079c531659141344cd1fd0a4f28419497f9722a3daafe3b4186f6b6457e09190a35050565b606081600003610ecf5750506040805180820190915260018152600360fc1b602082015290565b8160005b8115610ef95780610ee38161191e565b9150610ef29050600a83611ead565b9150610ed3565b6000816001600160401b03811115610f1357610f13611a17565b6040519080825280601f01601f191660200182016040528015610f3d576020820181803683370190505b509050815b8515610fca57610f53600182611ecf565b90506000610f62600a88611ead565b610f6d90600a611ee2565b610f779088611ecf565b610f82906030611ef9565b905060008160f81b905080848481518110610f9f57610f9f611f12565b60200101906001600160f81b031916908160001a905350610fc1600a89611ead565b97505050610f42565b50949350505050565b60005b81518110156110aa57611005828281518110610ff457610ff4611f12565b6020026020010151604001516110e5565b81818151811061101757611017611f12565b6020026020010151604001516002600084848151811061103957611039611f12565b60200260200101516000015163ffffffff1663ffffffff168152602001908152602001600020600084848151811061107357611073611f12565b60200260200101516020015161ffff1661ffff16815260200190815260200160002090816110a19190611caf565b50600101610fd6565b507fbe4864a8e820971c0247f5992e2da559595f7bf076a21cb5928d443d2a13b674816040516110da9190611f28565b60405180910390a150565b600281015161ffff81166003146106645781604051639a6d49cd60e01b815260040161054b919061156e565b60408051808201909152600080825260208201527f00000000000000000000000000000000000000000000000000000000000000006001600160a01b031663ddc28c586040518060a001604052808863ffffffff16815260200161117489610bc9565b8152602001878152602001868152602001851515815250306040518363ffffffff1660e01b81526004016111a9929190611d90565b6040805180830381865afa1580156111c5573d6000803e3d6000fd5b505050506040513d601f19601f820116820180604052508101906111e99190611fb3565b95945050505050565b6000813414611216576040516304fb820960e51b815234600482015260240161054b565b5090565b60007f00000000000000000000000000000000000000000000000000000000000000006001600160a01b031663e4fe1d946040518163ffffffff1660e01b8152600401602060405180830381865afa15801561127a573d6000803e3d6000fd5b505050506040513d601f19601f8201168201806040525081019061129e9190611fcf565b90506001600160a01b0381166112c7576040516329b99a9560e11b815260040160405180910390fd5b6040805133602482018190527f00000000000000000000000000000000000000000000000000000000000000006001600160a01b03818116604485015260648085018890528551808603909101815260849094019094526020830180516001600160e01b03166323b872dd60e01b17905261066493851692869061134c908590611352565b50505050565b600080602060008451602086016000885af180611375576040513d6000823e3d81fd5b50506000513d9150811561138d57806001141561139a565b6001600160a01b0384163b155b1561134c57604051635274afe760e01b81526001600160a01b038516600482015260240161054b565b60405180606001604052806000801916815260200160006001600160401b03168152602001611405604051806040016040528060008152602001600081525090565b905290565b60006060828403121561141c57600080fd5b50919050565b60008083601f84011261143457600080fd5b5081356001600160401b0381111561144b57600080fd5b60208301915083602082850101111561146357600080fd5b9250929050565b6001600160a01b0381168114610b9057600080fd5b600080600080600080600060e0888a03121561149a57600080fd5b6114a4898961140a565b96506060880135955060808801356001600160401b03808211156114c757600080fd5b6114d38b838c01611422565b909750955060a08a013591506114e88261146a565b90935060c089013590808211156114fe57600080fd5b5061150b8a828b01611422565b989b979a50959850939692959293505050565b60005b83811015611539578181015183820152602001611521565b50506000910152565b6000815180845261155a81602086016020860161151e565b601f01601f19169290920160200192915050565b6020815260006115816020830184611542565b9392505050565b803563ffffffff8116811461159c57600080fd5b919050565b600080604083850312156115b457600080fd5b6115bd83611588565b946020939093013593505050565b6000806000806000606086880312156115e357600080fd5b6115ec86611588565b945060208601356001600160401b038082111561160857600080fd5b61161489838a01611422565b9096509450604088013591508082111561162d57600080fd5b5061163a88828901611422565b969995985093965092949392505050565b60006020828403121561165d57600080fd5b61158182611588565b803561ffff8116811461159c57600080fd5b6000806040838503121561168b57600080fd5b61169483611588565b91506116a260208401611666565b90509250929050565b60008060008060a085870312156116c157600080fd5b6116cb868661140a565b935060608501356001600160401b038111156116e657600080fd5b6116f287828801611422565b90945092505060808501356117068161146a565b939692955090935050565b6000806020838503121561172457600080fd5b82356001600160401b038082111561173b57600080fd5b818501915085601f83011261174f57600080fd5b81358181111561175e57600080fd5b8660208260051b850101111561177357600080fd5b60209290920196919550909350505050565b6000806000806060858703121561179b57600080fd5b6117a485611588565b93506117b260208601611666565b925060408501356001600160401b038111156117cd57600080fd5b6117d987828801611422565b95989497509550505050565b8381528260208201526060604082015260006111e96060830184611542565b60006020828403121561181657600080fd5b81356115818161146a565b6000806000806000806080878903121561183a57600080fd5b61184387611588565b955060208701356001600160401b038082111561185f57600080fd5b61186b8a838b01611422565b9097509550604089013591508082111561188457600080fd5b5061189189828a01611422565b909450925050606087013580151581146118aa57600080fd5b809150509295509295509295565b6000606082840312156118ca57600080fd5b611581838361140a565b600181811c908216806118e857607f821691505b60208210810361141c57634e487b7160e01b600052602260045260246000fd5b634e487b7160e01b600052601160045260246000fd5b60006001820161193057611930611908565b5060010190565b81835281816020850137506000828201602090810191909152601f909101601f19169091010190565b60208152600061076f602083018486611937565b604081526000611988604083018587611937565b9050826020830152949350505050565b7002432b6363790333937b69031b430b4b71607d1b8152600082516119c481601185016020870161151e565b602160f81b6011939091019283015250601201919050565b63ffffffff841681526060602082015260006119fb6060830185611542565b8281036040840152611a0d8185611542565b9695505050505050565b634e487b7160e01b600052604160045260246000fd5b604051606081016001600160401b0381118282101715611a4f57611a4f611a17565b60405290565b604051601f8201601f191681016001600160401b0381118282101715611a7d57611a7d611a17565b604052919050565b60006001600160401b03831115611a9e57611a9e611a17565b611ab1601f8401601f1916602001611a55565b9050828152838383011115611ac557600080fd5b828260208301376000602084830101529392505050565b60006001600160401b0380841115611af657611af6611a17565b8360051b6020611b07818301611a55565b868152918501918181019036841115611b1f57600080fd5b865b84811015611bb857803586811115611b395760008081fd5b88016060368290031215611b4d5760008081fd5b611b55611a2d565b611b5e82611588565b8152611b6b868301611666565b8682015260408083013589811115611b835760008081fd5b929092019136601f840112611b985760008081fd5b611ba6368435898601611a85565b90820152845250918301918301611b21565b50979650505050505050565b60008085851115611bd457600080fd5b83861115611be157600080fd5b5050820193919092039150565b60008451611c0081846020890161151e565b8201838582376000930192835250909392505050565b600060208284031215611c2857600080fd5b81356001600160401b03811115611c3e57600080fd5b8201601f81018413611c4f57600080fd5b61076f84823560208401611a85565b601f821115611caa576000816000526020600020601f850160051c81016020861015611c875750805b601f850160051c820191505b81811015611ca657828155600101611c93565b5050505b505050565b81516001600160401b03811115611cc857611cc8611a17565b611cdc81611cd684546118d4565b84611c5e565b602080601f831160018114611d115760008415611cf95750858301515b600019600386901b1c1916600185901b178555611ca6565b600085815260208120601f198616915b82811015611d4057888601518255948401946001909101908401611d21565b5085821015611d5e5787850151600019600388901b60f8161c191681555b5050505050600190811b01905550565b604081526000611d816040830185611542565b90508260208301529392505050565b6040815263ffffffff8351166040820152602083015160608201526000604084015160a06080840152611dc660e0840182611542565b90506060850151603f198483030160a0850152611de38282611542565b60809690960151151560c08501525050506001600160a01b039190911660209091015290565b600060408284031215611e1b57600080fd5b604051604081018181106001600160401b0382111715611e3d57611e3d611a17565b604052825181526020928301519281019290925250919050565b600060808284031215611e6957600080fd5b611e71611a2d565b8251815260208301516001600160401b0381168114611e8f57600080fd5b6020820152611ea18460408501611e09565b60408201529392505050565b600082611eca57634e487b7160e01b600052601260045260246000fd5b500490565b8181038181111561075c5761075c611908565b808202811582820484141761075c5761075c611908565b60ff818116838216019081111561075c5761075c611908565b634e487b7160e01b600052603260045260246000fd5b600060208083018184528085518083526040925060408601915060408160051b87010184880160005b83811015611fa557888303603f190185528151805163ffffffff1684528781015161ffff16888501528601516060878501819052611f9181860183611542565b968901969450505090860190600101611f51565b509098975050505050505050565b600060408284031215611fc557600080fd5b6115818383611e09565b600060208284031215611fe157600080fd5b81516115818161146a56fea2646970667358221220eb4a679b3b1922a823630a0db1078edc5751b7fff43cc65b7f4254e40e62894a64736f6c63430008160033",
  "linkReferences": {},
  "deployedLinkReferences": {}
}